:100000000C942A000C9447000C9447000C94470071
:100010000C9447000C9447000C9447000C94470044
:100020000C9447000C9447000C9447000C94470034
:100030000C9447000C949D160C946A160C94371679
:100040000C9447000C9447000C9447000C94470014
:100050000C94470011241FBECFE5D4E0DEBFCDBF16
:1000600012E0A0E6B0E0E2E5FCE302C005900D92EC
:10007000A03DB107D9F712E0A0EDB2E001C01D929A
:10008000A93EB107E1F70E94D0160C94271E0C94EC
:100090000000EF92FF920F931F937B018C0120E0F1
:1000A00030E040E05FE40E94F50388238CF0C80153
:1000B000B70120E030E040E05FE40E94C1010E940F
:1000C00055049B01AC01205030404040504806C0D0
:1000D000C801B7010E9455049B01AC01B901CA01D6
:1000E0001F910F91FF90EF900895A0E0B0E0EBE733
:1000F000F0E00C944F1BDC012B01FA019C91923033
:1001000008F439C1EB018881823008F433C194309E
:1001100069F4843009F02FC111969C91119789815F
:10012000981709F428C1A0EFB1E025C1843009F483
:1001300021C18230A9F4923009F01DC19A01AD01AC
:1001400088E0EA010990AE01E90109929E0181501F
:10015000C1F7E201898111969C918923818308C1AD
:10016000923009F407C112962D903C901397EB0141
:100170008A819B811496AD90BD90CD90DC901797AD
:10018000EC80FD800E811F819101281B390BB90184
:1001900037FF04C066277727621B730B6032710537
:1001A0000CF061C0121613066CF537014801062EDB
:1001B00004C096948794779467940A94D2F721E0C8
:1001C00030E040E050E004C0220F331F441F551FB1
:1001D0006A95D2F721503040404050402E213F21B7
:1001E00040235123211531054105510521F021E01E
:1001F00030E040E050E079018A01E628F72808293C
:1002000019293CC0232BD1F1260E371E350146019A
:10021000062E04C096948794779467940A94D2F734
:1002200021E030E040E050E004C0220F331F441FC3
:10023000551F6A95D2F721503040404050402A2146
:100240003B214C215D21211531054105510521F04E
:1002500021E030E040E050E059016A01A628B728CB
:10026000C828D9280BC0821593052CF01C01AA249C
:10027000BB24650103C0EE24FF24870111969C91E5
:10028000D20111968C91981709F445C0992339F041
:10029000A80197012A193B094C095D0906C0A6016E
:1002A00095012E193F09400B510B57FD08C01182D3
:1002B0003382228224833583468357831DC081E0A5
:1002C00081833382228288279927DC01821B930B4A
:1002D000A40BB50B84839583A683B7830DC0220F2F
:1002E000331F441F551F24833583468357838281E0
:1002F000938101979383828324813581468157813D
:10030000DA01C9010197A109B1098F5F9F4FAF4F72
:10031000BF4328F30BC0918333822282EA0CFB1C7B
:100320000C1D1D1DE482F5820683178383E0808304
:10033000248135814681578157FF1AC0C901AA27F8
:1003400097FDA095BA2F81709070A070B0705695EF
:10035000479537952795822B932BA42BB52B848318
:100360009583A683B7838281938101969383828349
:10037000DF0101C0D201CD01CDB7DEB7E2E10C94BF
:100380006B1BA0E2B0E0E7ECF1E00C945B1B69832F
:100390007A838B839C832D833E834F835887E9E048
:1003A000EE2EF12CEC0EFD1ECE010196B7010E943F
:1003B0007E058E010F5E1F4FCE010596B8010E948B
:1003C0007E058A8991E089278A8BC701B801AE0131
:1003D000475E5F4F0E9475000E94A904A096E6E068
:1003E0000C94771BA0E2B0E0E8EFF1E00C945B1B0B
:1003F00069837A838B839C832D833E834F835887C5
:10040000F9E0EF2EF12CEC0EFD1ECE010196B701A6
:100410000E947E058E010F5E1F4FCE010596B8012A
:100420000E947E05C701B801AE01475E5F4F0E9482
:1004300075000E94A904A096E6E00C94771BA0E248
:10044000B0E0E5E2F2E00C944F1B69837A838B8382
:100450009C832D833E834F835887CE010196BE0136
:10046000675F7F4F0E947E05CE010596BE016F5EDD
:100470007F4F0E947E059985923088F0898982306D
:10048000C8F0943019F4823051F404C0843029F457
:10049000923081F480EF91E0C6C0923049F420E0C0
:1004A0009A858A89981321E02A87CE010996BBC0D4
:1004B000823049F420E09A858A89981321E02A8BBA
:1004C000CE014196B0C02D843E844F8458886D88FB
:1004D0007E888F88988CEE24FF248701AA24BB2471
:1004E000650140E050E060E070E0E0E0F0E0C10174
:1004F00081709070892BE9F0E60CF71C081D191D1E
:100500009A01AB012A0D3B1D4C1D5D1D80E090E062
:10051000A0E0B0E0E614F7040805190520F481E036
:1005200090E0A0E0B0E0BA01A901480F591F6A1F8E
:100530007B1FAA0CBB1CCC1CDD1C97FE08C081E0F5
:1005400090E0A0E0B0E0A82AB92ACA2ADB2A3196B6
:10055000E032F10549F0660C771C881C991C569412
:10056000479437942794C3CFFA85EA892B893C892D
:100570008B859C85280F391F2E5F3F4F17C0CA01FE
:1005800081709070892B61F016950795F794E79428
:1005900080E090E0A0E0B0E8E82AF92A0A2B1B2BC3
:1005A00076956795579547952F5F3F4F77FDE7CF36
:1005B0000CC0440F551F661F771F17FD4160EE0CDE
:1005C000FF1C001F111F21503040403090E05907A0
:1005D00090E0690790E4790760F32B8F3C8FDB0193
:1005E000CA018F779070A070B07080349105A1051A
:1005F000B10561F447FD0AC0E114F10401051105DC
:1006000029F0405C5F4F6F4F7F4F40781A8EFE1786
:1006100011F081E08A8F4D8F5E8F6F8F78A383E01A
:10062000898FCE0149960E94A904A096E2E10C941C
:100630006B1BA8E1B0E0EFE1F3E00C94571B69837A
:100640007A838B839C832D833E834F835887B9E0C5
:10065000EB2EF12CEC0EFD1ECE010196B7010E948F
:100660007E058E010F5E1F4FCE010596B8010E94D8
:100670007E052985223008F47EC03989323010F495
:10068000B8017CC08A859A8989278A87243011F02D
:10069000223031F4231709F06EC060EF71E06EC0B4
:1006A000343039F41D861E861F86188A1C861B86E8
:1006B00004C0323021F484E08987B7015FC02B8504
:1006C0003C858B899C89281B390B3C872B87ED84C3
:1006D000FE840F851889AD88BE88CF88D88CEA142F
:1006E000FB040C051D0540F4EE0CFF1C001F111F40
:1006F000215030403C872B8720E030E040E050E044
:1007000080E090E0A0E0B0E460E070E0EA14FB0478
:100710000C051D0540F0282B392B4A2B5B2BEA18C2
:10072000FB080C091D09B695A79597958795EE0CC2
:10073000FF1C001F111F6F5F7F4F6F31710531F775
:10074000DA01C9018F779070A070B0708034910584
:10075000A105B10561F427FD0AC0E114F10401050A
:10076000110529F0205C3F4F4F4F5F4F20782D87B8
:100770003E874F87588BBE01675F7F4FCB010E943A
:10078000A9046896EAE00C94731BA8E1B0E0EBECD6
:10079000F3E00C945B1B69837A838B839C832D83AA
:1007A0003E834F83588789E0E82EF12CEC0EFD1E26
:1007B000CE010196B7010E947E058E010F5E1F4F8C
:1007C000CE010596B8010E947E058985823040F0F1
:1007D0008989823028F0C701B8010E94F60501C05E
:1007E0008FEF6896E6E00C94771BA8E1B0E0EBEFA2
:1007F000F3E00C945B1B69837A838B839C832D834A
:100800003E834F83588789E0E82EF12CEC0EFD1EC5
:10081000CE010196B7010E947E058E010F5E1F4F2B
:10082000CE010596B8010E947E058985823040F090
:100830008989823028F0C701B8010E94F60501C0FD
:100840008FEF6896E6E00C94771BA8E1B0E0EBE24E
:10085000F4E00C945B1B69837A838B839C832D83E8
:100860003E834F83588789E0E82EF12CEC0EFD1E65
:10087000CE010196B7010E947E058E010F5E1F4FCB
:10088000CE010596B8010E947E058985823040F030
:100890008989823028F0C701B8010E94F60501C09D
:1008A00081E06896E6E00C94771BACE0B0E0EBE505
:1008B000F4E00C945F1B69837A838B839C83CE0165
:1008C0000196BE016B5F7F4F0E947E058D81823055
:1008D00061F1823050F1843021F48E81882351F10E
:1008E0002EC02F81388537FD20C06E812F31310514
:1008F0001CF06623F9F023C08EE190E0821B930B7D
:1009000029853A854B855C8504C056954795379572
:1009100027958A95D2F76623B1F05095409530958A
:1009200021953F4F4F4F5F4F0EC020E030E040E039
:1009300050E009C02FEF3FEF4FEF5FE704C020E02A
:1009400030E040E050E8B901CA012C96E2E00C9496
:100950007B1BDF92EF92FF920F931F93FC01E480C9
:10096000F58006811781D1808081823048F480E053
:1009700090E0A0E1B0E0E82AF92A0A2B1B2BA5C0E1
:10098000843009F49FC0823021F4EE24FF248701D3
:1009900005C0E114F1040105110519F4E0E0F0E0EF
:1009A00096C0628173819FEF623879070CF05BC05B
:1009B00022E83FEF261B370B2A3131052CF020E0CF
:1009C00030E040E050E02AC0B801A701022E04C088
:1009D00076956795579547950A94D2F781E090E010
:1009E000A0E0B0E004C0880F991FAA1FBB1F2A9582
:1009F000D2F70197A109B1098E219F21A023B1232C
:100A00000097A105B10521F081E090E0A0E0B0E001
:100A10009A01AB01282B392B4A2B5B2BDA01C90138
:100A20008F779070A070B07080349105A105B105EA
:100A300039F427FF09C0205C3F4F4F4F5F4F04C080
:100A4000215C3F4F4F4F5F4FE0E0F0E02030A0E0EF
:100A50003A07A0E04A07A0E45A0710F0E1E0F0E00E
:100A600079018A0127C06038710564F5FB01E158FE
:100A7000FF4FD801C7018F779070A070B07080349D
:100A80009105A105B10539F4E7FE0DC080E490E0C1
:100A9000A0E0B0E004C08FE390E0A0E0B0E0E80E9A
:100AA000F91E0A1F1B1F17FF05C016950795F7941F
:100AB000E794319687E016950795F794E7948A9521
:100AC000D1F705C0EE24FF248701EFEFF0E06E2F91
:100AD000679566276795902F9F77D794DD24D794E5
:100AE0008E2F8695492F462B582F5D29B701CA01B5
:100AF0001F910F91FF90EF90DF900895FC01DB01B3
:100B0000408151812281622F6F7770E0221F22275E
:100B1000221F9381892F880F822B282F30E0991F65
:100B20009927991F11969C93119721153105A9F5C5
:100B3000411551056105710511F482E037C082E865
:100B40009FEF13969C938E9312979A01AB0167E0E7
:100B5000220F331F441F551F6A95D1F783E08C93F2
:100B60000DC0220F331F441F551F12968D919C916B
:100B70001397019713969C938E931297203080E0E1
:100B8000380780E0480780E4580758F314962D93FF
:100B90003D934D935C93179708952F3F310579F45A
:100BA000411551056105710519F484E08C93089590
:100BB00064FF03C081E08C9312C01C9210C02F57B9
:100BC000304013963C932E93129783E08C9387E0EA
:100BD000440F551F661F771F8A95D1F770641496CE
:100BE0004D935D936D937C93179708951F93DC014C
:100BF000FB019C91923008F447C08081823008F458
:100C000043C0943051F411961C91843099F5818140
:100C1000682F70E0611B71093FC0843021F0923071
:100C200031F48230B9F18181882389F12DC0119688
:100C30001C9111978230F1F081811817D9F4129626
:100C40002D913C911397828193818217930794F0A1
:100C500028173907BCF014968D919D910D90BC9189
:100C6000A02D2481358146815781281739074A07ED
:100C70005B0718F4112341F00AC082179307A407F9
:100C8000B50740F4112319F061E070E005C06FEF83
:100C90007FEF02C060E070E0CB011F910895DF9309
:100CA000CF9300D000D00F92CDB7DEB789836A838F
:100CB0004B838981843008F081C18A81883008F0B3
:100CC0007DC18981282F30E03D832C838C819D81DB
:100CD0008130910509F46EC02C813D8122303105AF
:100CE0002CF48C819D81009771F068C12C813D812D
:100CF0002230310509F4B5C08C819D818330910586
:100D000009F406C15BC18B818823A1F0AAE3B0E09E
:100D1000EAE3F0E08081482F8A81282F30E081E0EB
:100D200090E0022E02C0880F991F0A94E2F7842BEC
:100D30008C9344C1AAE3B0E0EAE3F0E08081482F5D
:100D40008A81282F30E081E090E0022E02C0880FD7
:100D5000991F0A94E2F7809584238C938B818230CB
:100D6000A1F4ABE3B0E0EBE3F0E08081482F8A81AF
:100D7000282F30E081E090E0022E02C0880F991FFA
:100D80000A94E2F7842B8C9319C1ABE3B0E0EBE358
:100D9000F0E08081482F8A81282F30E081E090E0C8
:100DA000022E02C0880F991F0A94E2F780958423CF
:100DB0008C9304C18B818823A1F0A7E3B0E0E7E323
:100DC000F0E08081482F8A81282F30E081E090E098
:100DD000022E02C0880F991F0A94E2F7842B8C938D
:100DE000EDC0A7E3B0E0E7E3F0E08081482F8A811F
:100DF000282F30E081E090E0022E02C0880F991F7A
:100E00000A94E2F7809584238C938B818230A1F43D
:100E1000A8E3B0E0E8E3F0E08081482F8A81282F42
:100E200030E081E090E0022E02C0880F991F0A9402
:100E3000E2F7842B8C93C2C0A8E3B0E0E8E3F0E0D3
:100E40008081482F8A81282F30E081E090E0022EB7
:100E500002C0880F991F0A94E2F7809584238C932F
:100E6000ADC08B818823A1F0A4E3B0E0E4E3F0E01F
:100E70008081482F8A81282F30E081E090E0022E87
:100E800002C0880F991F0A94E2F7842B8C9396C0B6
:100E9000A4E3B0E0E4E3F0E08081482F8A81282FCA
:100EA00030E081E090E0022E02C0880F991F0A9482
:100EB000E2F7809584238C938B818230A1F4A5E3A3
:100EC000B0E0E5E3F0E08081482F8A81282F30E010
:100ED00081E090E0022E02C0880F991F0A94E2F789
:100EE000842B8C936BC0A5E3B0E0E5E3F0E0808158
:100EF000482F8A81282F30E081E090E0022E02C046
:100F0000880F991F0A94E2F7809584238C9356C02A
:100F10008B818823A1F0A1E3B0E0E1E3F0E08081E0
:100F2000482F8A81282F30E081E090E0022E02C015
:100F3000880F991F0A94E2F7842B8C933FC0A1E39A
:100F4000B0E0E1E3F0E08081482F8A81282F30E093
:100F500081E090E0022E02C0880F991F0A94E2F708
:100F6000809584238C938B818230A1F4A2E3B0E03E
:100F7000E2E3F0E08081482F8A81282F30E081E091
:100F800090E0022E02C0880F991F0A94E2F7842B8A
:100F90008C9314C0A2E3B0E0E2E3F0E08081482F3C
:100FA0008A81282F30E081E090E0022E02C0880F75
:100FB000991F0A94E2F7809584238C930F900F90E9
:100FC0000F900F900F90CF91DF910895DF93CF9303
:100FD00000D000D00F92CDB7DEB789836A834B83F0
:100FE0008981843008F0D5C08A81883008F0D1C06A
:100FF0008981282F30E03D832C838C819D81813035
:10100000910509F443C02C813D81223031052CF437
:101010008C819D81009771F0BCC02C813D81223074
:10102000310509F45FC08C819D818330910509F4FD
:1010300085C0AFC08B818823A1F0ABE3B0E0EBE3C8
:10104000F0E08081482F8A81282F30E081E090E015
:10105000022E02C0880F991F0A94E2F7842B8C930A
:1010600098C0ABE3B0E0EBE3F0E08081482F8A81E9
:10107000282F30E081E090E0022E02C0880F991FF7
:101080000A94E2F7809584238C9383C08B81882314
:10109000A1F0A8E3B0E0E8E3F0E08081482F8A8186
:1010A000282F30E081E090E0022E02C0880F991FC7
:1010B0000A94E2F7842B8C936CC0A8E3B0E0E8E3D9
:1010C000F0E08081482F8A81282F30E081E090E095
:1010D000022E02C0880F991F0A94E2F7809584239C
:1010E0008C9357C08B818823A1F0A5E3B0E0E5E3A2
:1010F000F0E08081482F8A81282F30E081E090E065
:10110000022E02C0880F991F0A94E2F7842B8C9359
:1011100040C0A5E3B0E0E5E3F0E08081482F8A819C
:10112000282F30E081E090E0022E02C0880F991F46
:101130000A94E2F7809584238C932BC08B818823BB
:10114000A1F0A2E3B0E0E2E3F0E08081482F8A81E1
:10115000282F30E081E090E0022E02C0880F991F16
:101160000A94E2F7842B8C9314C0A2E3B0E0E2E38C
:10117000F0E08081482F8A81282F30E081E090E0E4
:10118000022E02C0880F991F0A94E2F780958423EB
:101190008C930F900F900F900F900F90CF91DF9145
:1011A0000895DF93CF9300D000D000D0CDB7DEB745
:1011B0008A836B8319828A81843008F071C08B81A5
:1011C000883008F06AC08A81282F30E03E832D8362
:1011D0004D815E814130510541F18D819E8182308A
:1011E000910534F42D813E812115310561F052C005
:1011F0004D815E814230510551F18D819E81833058
:101200009105B9F147C0E9E3F0E08081282F30E093
:101210008B81882F90E0A90102C0559547958A954A
:10122000E2F7CA018170898335C0E6E3F0E080818E
:10123000282F30E08B81882F90E0A90102C05595BE
:1012400047958A95E2F7CA018170898323C0E3E359
:10125000F0E08081282F30E08B81882F90E0A90179
:1012600002C0559547958A95E2F7CA018170898336
:1012700011C0E0E3F0E08081282F30E08B81882FDF
:1012800090E0A90102C0559547958A95E2F7CA01F9
:101290008170898359815C8305C08FEF8C8302C084
:1012A0009FEF9C838C8126960FB6F894DEBF0FBE0D
:1012B000CDBFCF91DF910895DF93CF9300D000D0C1
:1012C000CDB7DEB789836A838981843090F58981BF
:1012D000282F30E03C832B838B819C8181309105CA
:1012E000D1F02B813C81223031052CF48B819C8103
:1012F000009761F01EC02B813C812230310581F0C6
:101300008B819C818330910581F013C0EBE3F0E089
:101310008A8180830EC0E8E3F0E08A81808309C07F
:10132000E5E3F0E08A81808304C0E2E3F0E08A81B3
:1013300080830F900F900F900F90CF91DF910895C1
:10134000DF93CF9300D000D00F92CDB7DEB78A8362
:1013500019828A818430A8F58A81282F30E03D8364
:101360002C838C819D8181309105D1F02C813D8130
:10137000223031052CF48C819D81009761F01EC0D4
:101380002C813D812230310581F08C819D8183301B
:10139000910581F013C0E9E3F0E0808189830EC0FC
:1013A000E6E3F0E08081898309C0E3E3F0E0808137
:1013B000898304C0E0E3F0E08081898399819B8385
:1013C00001C01B828B810F900F900F900F900F9098
:1013D000CF91DF910895DF93CF9300D000D0CDB7A8
:1013E000DEB789836A838981843008F072C08A817C
:1013F000883008F06EC08981282F30E03C832B8331
:101400008B819C818130910549F12B813C81223077
:1014100031052CF48B819C81009761F05AC02B819F
:101420003C812230310571F18B819C8183309105A3
:10143000E9F14FC0ABE3B0E0EBE3F0E08081482F8F
:101440008A81282F30E081E090E0022E02C0880FD0
:10145000991F0A94E2F784278C933BC0A8E3B0E07D
:10146000E8E3F0E08081482F8A81282F30E081E096
:1014700090E0022E02C0880F991F0A94E2F7842799
:101480008C9327C0A5E3B0E0E5E3F0E08081482F2E
:101490008A81282F30E081E090E0022E02C0880F80
:1014A000991F0A94E2F784278C9313C0A2E3B0E05B
:1014B000E2E3F0E08081482F8A81282F30E081E04C
:1014C00090E0022E02C0880F991F0A94E2F7842749
:1014D0008C930F900F900F900F90CF91DF91089504
:1014E000DF93CF9300D00F92CDB7DEB78983898188
:1014F000843008F03EC08981282F30E03B832A8366
:101500008A819B8181309105E9F02A813B812230DB
:1015100031052CF48A819B81009761F02AC02A81D1
:101520003B8122303105B1F08A819B818330910566
:10153000C9F01FC0ABE3B0E0EBE3F0E08081809541
:101540008C9317C0A8E3B0E0E8E3F0E080818095D9
:101550008C930FC0A5E3B0E0E5E3F0E080818095D7
:101560008C9307C0A2E3B0E0E2E3F0E080818095D5
:101570008C930F900F900F90CF91DF910895DF9390
:10158000CF93CDB7DEB7AFE5B0E0EFE5F0E0808117
:1015900080688C93CF91DF910895DF93CF93CDB77F
:1015A000DEB7AFE5B0E0EFE5F0E080818F778C93B8
:1015B000CF91DF9108950F931F93DF93CF93CDB712
:1015C000DEB7CC54D0400FB6F894DEBF0FBECDBF0F
:1015D00080E063E041E00E944F0680E062E041E08D
:1015E0000E944F0681E063E041E00E944F0681E0E7
:1015F00062E041E00E944F0681E061E041E00E942C
:101600004F0681E060E041E00E944F06FE01E75B8B
:10161000FF4F80E090E0A8EFB1E480839183A28344
:10162000B3838E010B5B1F4FFE01E75BFF4F6081B1
:1016300071818281938120E030E04AE755E40E9485
:101640001F02DC01CB01F80180839183A283B38365
:10165000FE01EB5BFF4F608171818281938120E00D
:1016600030E040E85FE30E942504882344F4FE0153
:10167000ED5BFF4F81E090E09183808364C0FE01C9
:10168000EB5BFF4F608171818281938120E03FEFAE
:101690004FE757E40E94C50318160CF043C0FE0143
:1016A000E75BFF4F608171818281938120E030E0B0
:1016B00040E251E40E941F02DC01CB018E010D5B70
:1016C0001F4FBC01CD010E944900DC01CB01F80194
:1016D000918380831FC0FE01EF5BFF4F80E991E0A3
:1016E00091838083FE01EF5BFF4F808191810197A1
:1016F000F1F7FE01EF5BFF4F91838083DE01AD5B6D
:10170000BF4FFE01ED5BFF4F8081918101971196E4
:101710009C938E93FE01ED5BFF4F8081918100973A
:10172000D1F624C08E010D5B1F4FFE01EB5BFF4F16
:1017300060817181828193810E944900DC01CB012B
:10174000F80191838083FE01ED5BFF4F80819181E1
:10175000FE01FF9691838083FE01FF968081918137
:101760000197F1F7FE01FF969183808380E20E944A
:10177000C80D80E20E94C80D80E80E94C80D80E07C
:1017800090E0A0E2B2E48BAF9CAFADAFBEAF6BAD6B
:101790007CAD8DAD9EAD2BEA3AEA4AEA50E40E9458
:1017A0001F02DC01CB018FAB98AFA9AFBAAF6FA915
:1017B00078AD89AD9AAD20E030E040E85FE30E946B
:1017C000250488231CF481E08EAB91C06FA978AD0D
:1017D00089AD9AAD20E030E04FE753E40E94C503A5
:1017E00018160CF07BC06BAD7CAD8DAD9EAD20E0CE
:1017F00030E04AE754E40E941903DC01CB018AABD4
:101800009BABACABBDAB6AA97BA98CA99DA920E021
:1018100030E04AE755E40E941F02DC01CB018EA7AD
:101820009FA7A8ABB9AB6EA57FA588A999A920E011
:1018300030E040E85FE30E94250488232CF481E037
:1018400090E09DA78CA73FC06EA57FA588A999A908
:1018500020E03FEF4FE757E40E94C50318164CF510
:101860006AA97BA98CA99DA920E030E040E251E45F
:101870000E941F02DC01CB01BC01CD010E94490086
:10188000DC01CB019DA78CA70FC080E991E09BA74D
:101890008AA78AA59BA50197F1F79BA78AA78CA584
:1018A0009DA501979DA78CA78CA59DA5009769F77D
:1018B00024C06EA57FA588A999A90E944900DC01D2
:1018C000CB019DA78CA78CA59DA599A788A788A5C6
:1018D00099A50197F1F799A788A70FC06FA978ADCF
:1018E00089AD9AAD0E944900DC01CB018EAB8EA977
:1018F0008FA38FA18A95F1F78FA380E00E94C80D76
:1019000080EC0E94C80D80E090E0A0E2B2E48BA3DE
:101910009CA3ADA3BEA36BA17CA18DA19EA12BEA2C
:101920003AEA4AEA50E40E941F02DC01CB018F8FA1
:1019300098A3A9A3BAA36F8D78A189A19AA120E049
:1019400030E040E85FE30E94250488231CF481E036
:101950008E8F91C06F8D78A189A19AA120E030E08F
:101960004FE753E40E94C50318160CF07BC06BA12F
:101970007CA18DA19EA120E030E04AE754E40E94C2
:101980001903DC01CB018A8F9B8FAC8FBD8F6A8DD1
:101990007B8D8C8D9D8D20E030E04AE755E40E94E0
:1019A0001F02DC01CB018E8B9F8BA88FB98F6E89B4
:1019B0007F89888D998D20E030E040E85FE30E94C8
:1019C000250488232CF481E090E09D8B8C8B3FC014
:1019D0006E897F89888D998D20E03FEF4FE757E42E
:1019E0000E94C50318164CF56A8D7B8D8C8D9D8DDC
:1019F00020E030E040E251E40E941F02DC01CB0114
:101A0000BC01CD010E944900DC01CB019D8B8C8B78
:101A10000FC080E991E09B8B8A8B8A899B89019713
:101A2000F1F79B8B8A8B8C899D8901979D8B8C8B81
:101A30008C899D89009769F724C06E897F89888D7C
:101A4000998D0E944900DC01CB019D8B8C8B8C8988
:101A50009D89998B888B888999890197F1F7998B52
:101A6000888B0FC06F8D78A189A19AA10E9449002F
:101A7000DC01CB018E8F8E8D8F878F858A95F1F754
:101A80008F8780E00E94C80D80E10E94C80D8DEC18
:101A90009CECACECBFE38B879C87AD87BE876B85E6
:101AA0007C858D859E8520E030E04AE755E40E94E4
:101AB0001F02DC01CB018F839887A987BA876F81CA
:101AC000788589859A8520E030E040E85FE30E94D0
:101AD000250488232CF481E090E09E838D833FC011
:101AE0006F81788589859A8520E03FEF4FE757E43D
:101AF0000E94C50318164CF56B857C858D859E85E7
:101B000020E030E040E251E40E941F02DC01CB0102
:101B1000BC01CD010E944900DC01CB019E838D8375
:101B20000FC080E991E09C838B838B819C8101971E
:101B3000F1F79C838B838D819E8101979E838D839A
:101B40008D819E81009769F714C06F8178858985A2
:101B50009A850E944900DC01CB019E838D838D8193
:101B60009E819A83898389819A810197F1F79A836B
:101B7000898381E08093D002C45BDF4F0FB6F89475
:101B8000DEBF0FBECDBFCF91DF911F910F910895A2
:101B9000DF93CF93CDB7DEB7EF970FB6F894DEBFE4
:101BA0000FBECDBF8FAF80E063E040E00E94E6074C
:101BB0008FAD82958F70982F917081E060E0492FF2
:101BC0000E94E6078FAD829586958770982F917059
:101BD00081E061E0492F0E94E6078FAD82958695EE
:101BE00086958370982F917081E062E0492F0E9462
:101BF000E6078FAD982F991F9927991F81E063E021
:101C0000492F0E94E60780E062E041E00E94E6077B
:101C100080E090E0ACE4B2E48BAF9CAFADAFBEAF80
:101C20006BAD7CAD8DAD9EAD2BEA3AEA4AEA50E44D
:101C30000E941F02DC01CB018FAB98AFA9AFBAAFF6
:101C40006FA978AD89AD9AAD20E030E040E85FE360
:101C50000E94250488231CF481E08EAB91C06FA9FB
:101C600078AD89AD9AAD20E030E04FE753E40E94B3
:101C7000C50318160CF07BC06BAD7CAD8DAD9EAD71
:101C800020E030E04AE754E40E941903DC01CB0174
:101C90008AAB9BABACABBDAB6AA97BA98CA99DA958
:101CA00020E030E04AE755E40E941F02DC01CB014E
:101CB0008EA79FA7A8ABB9AB6EA57FA588A999A948
:101CC00020E030E040E85FE30E94250488232CF404
:101CD00081E090E09DA78CA73FC06EA57FA588A955
:101CE00099A920E03FEF4FE757E40E94C50318167B
:101CF0004CF56AA97BA98CA99DA920E030E040E2BF
:101D000051E40E941F02DC01CB01BC01CD010E9405
:101D10004900DC01CB019DA78CA70FC080E991E0B1
:101D20009BA78AA78AA59BA50197F1F79BA78AA7DE
:101D30008CA59DA501979DA78CA78CA59DA5009717
:101D400069F724C06EA57FA588A999A90E944900BA
:101D5000DC01CB019DA78CA78CA59DA599A788A781
:101D600088A599A50197F1F799A788A70FC06FA932
:101D700078AD89AD9AAD0E944900DC01CB018EABF4
:101D80008EA98FA38FA18A95F1F78FA380E062E0DF
:101D900040E00E94E6078091D002882309F4EEC05B
:101DA0008FAD982F917081E060E0492F0E94E60787
:101DB0008FAD8695982F917081E061E0492F0E9448
:101DC000E6078FAD86958695982F917081E062E049
:101DD000492F0E94E6078FAD869586958695982FA8
:101DE000917081E063E0492F0E94E60780E062E0A5
:101DF00041E00E94E60780E090E0ACE4B2E48BA30F
:101E00009CA3ADA3BEA36BA17CA18DA19EA12BEA37
:101E10003AEA4AEA50E40E941F02DC01CB018F8FAC
:101E200098A3A9A3BAA36F8D78A189A19AA120E054
:101E300030E040E85FE30E94250488231CF481E041
:101E40008E8F91C06F8D78A189A19AA120E030E09A
:101E50004FE753E40E94C50318160CF07BC06BA13A
:101E60007CA18DA19EA120E030E04AE754E40E94CD
:101E70001903DC01CB018A8F9B8FAC8FBD8F6A8DDC
:101E80007B8D8C8D9D8D20E030E04AE755E40E94EB
:101E90001F02DC01CB018E8B9F8BA88FB98F6E89BF
:101EA0007F89888D998D20E030E040E85FE30E94D3
:101EB000250488232CF481E090E09D8B8C8B3FC01F
:101EC0006E897F89888D998D20E03FEF4FE757E439
:101ED0000E94C50318164CF56A8D7B8D8C8D9D8DE7
:101EE00020E030E040E251E40E941F02DC01CB011F
:101EF000BC01CD010E944900DC01CB019D8B8C8B84
:101F00000FC080E991E09B8B8A8B8A899B8901971E
:101F1000F1F79B8B8A8B8C899D8901979D8B8C8B8C
:101F20008C899D89009769F724C06E897F89888D87
:101F3000998D0E944900DC01CB019D8B8C8B8C8993
:101F40009D89998B888B888999890197F1F7998B5D
:101F5000888B0FC06F8D78A189A19AA10E9449003A
:101F6000DC01CB018E8F8E8D8F878F858A95F1F75F
:101F70008F8780E062E040E00E94E6078DEC9CECF9
:101F8000ACECBFE38B879C87AD87BE876B857C8578
:101F90008D859E8520E030E04AE755E40E941F02CF
:101FA000DC01CB018F839887A987BA876F817885F9
:101FB00089859A8520E030E040E85FE30E942504AF
:101FC00088232CF481E090E09E838D833FC06F8155
:101FD000788589859A8520E03FEF4FE757E40E9496
:101FE000C50318164CF56B857C858D859E8520E094
:101FF00030E040E251E40E941F02DC01CB01BC0151
:10200000CD010E944900DC01CB019E838D830FC06E
:1020100080E991E09C838B838B819C810197F1F710
:102020009C838B838D819E8101979E838D838D817F
:102030009E81009769F714C06F81788589859A859C
:102040000E944900DC01CB019E838D838D819E819E
:102050009A83898389819A810197F1F79A83898389
:10206000EF960FB6F894DEBF0FBECDBFCF91DF91D4
:102070000895DF93CF93CDB7DEB7EF970FB6F894FF
:10208000DEBF0FBECDBF8FAF80E063E041E00E94B6
:10209000E6078FAD82958F70982F917081E060E098
:1020A000492F0E94E6078FAD829586958770982FFD
:1020B000917081E061E0492F0E94E6078FAD829523
:1020C000869586958370982F917081E062E0492F04
:1020D0000E94E6078FAD982F991F9927991F81E0DD
:1020E00063E0492F0E94E60780E062E041E00E9441
:1020F000E60780E090E0ACE4B2E48BAF9CAFADAF1C
:10210000BEAF6BAD7CAD8DAD9EAD2BEA3AEA4AEA2F
:1021100050E40E941F02DC01CB018FAB98AFA9AF46
:10212000BAAF6FA978AD89AD9AAD20E030E040E854
:102130005FE30E94250488231CF481E08EAB91C0EC
:102140006FA978AD89AD9AAD20E030E04FE753E458
:102150000E94C50318160CF07BC06BAD7CAD8DAD35
:102160009EAD20E030E04AE754E40E941903DC0110
:10217000CB018AAB9BABACABBDAB6AA97BA98CA9ED
:102180009DA920E030E04AE755E40E941F02DC01EF
:10219000CB018EA79FA7A8ABB9AB6EA57FA588A9D9
:1021A00099A920E030E040E85FE30E9425048823FD
:1021B0002CF481E090E09DA78CA73FC06EA57FA581
:1021C00088A999A920E03FEF4FE757E40E94C50393
:1021D00018164CF56AA97BA98CA99DA920E030E0CE
:1021E00040E251E40E941F02DC01CB01BC01CD01A1
:1021F0000E944900DC01CB019DA78CA70FC080E99C
:1022000091E09BA78AA78AA59BA50197F1F79BA7B9
:102210008AA78CA59DA501979DA78CA78CA59DA598
:10222000009769F724C06EA57FA588A999A90E9487
:102230004900DC01CB019DA78CA78CA59DA599A782
:1022400088A788A599A50197F1F799A788A70FC036
:102250006FA978AD89AD9AAD0E944900DC01CB0130
:102260008EAB8EA98FA38FA18A95F1F78FA380E003
:1022700062E040E00E94E6078FAD982F917081E008
:1022800060E0492F0E94E6078FAD8695982F9170E8
:1022900081E061E0492F0E94E6078FAD8695869523
:1022A000982F917081E062E0492F0E94E6078FAD80
:1022B000869586958695982F917081E063E0492FE9
:1022C0000E94E60780E062E041E00E94E60780E0CD
:1022D00090E0ACE4B2E48BA39CA3ADA3BEA36BA13E
:1022E0007CA18DA19EA12BEA3AEA4AEA50E40E9421
:1022F0001F02DC01CB018F8F98A3A9A3BAA36F8D16
:1023000078A189A19AA120E030E040E85FE30E9433
:10231000250488231CF481E08E8F91C06F8D78A1F5
:1023200089A19AA120E030E04FE753E40E94C50361
:1023300018160CF07BC06BA17CA18DA19EA120E0A2
:1023400030E04AE754E40E941903DC01CB018A8F94
:102350009B8FAC8FBD8F6A8D7B8D8C8D9D8D20E08A
:1023600030E04AE755E40E941F02DC01CB018E8B6E
:102370009F8BA88FB98F6E897F89888D998D20E07A
:1023800030E040E85FE30E94250488232CF481E0DC
:1023900090E09D8B8C8B3FC06E897F89888D998D55
:1023A00020E03FEF4FE757E40E94C50318164CF5B5
:1023B0006A8D7B8D8C8D9D8D20E030E040E251E474
:1023C0000E941F02DC01CB01BC01CD010E9449002B
:1023D000DC01CB019D8B8C8B0FC080E991E09B8B46
:1023E0008A8B8A899B890197F1F79B8B8A8B8C89D1
:1023F0009D8901979D8B8C8B8C899D89009769F7AE
:1024000024C06E897F89888D998D0E944900DC01E6
:10241000CB019D8B8C8B8C899D89998B888B88892E
:1024200099890197F1F7998B888B0FC06F8D78A1EF
:1024300089A19AA10E944900DC01CB018E8F8E8D6B
:102440008F878F858A95F1F78F8780E062E040E083
:102450000E94E6078DEC9CECACECBFE38B879C877D
:10246000AD87BE876B857C858D859E8520E030E0BD
:102470004AE755E40E941F02DC01CB018F83988755
:10248000A987BA876F81788589859A8520E030E0B1
:1024900040E85FE30E94250488232CF481E090E06B
:1024A0009E838D833FC06F81788589859A8520E0E2
:1024B0003FEF4FE757E40E94C50318164CF56B85B4
:1024C0007C858D859E8520E030E040E251E40E94CD
:1024D0001F02DC01CB01BC01CD010E944900DC01DF
:1024E000CB019E838D830FC080E991E09C838B8319
:1024F0008B819C810197F1F79C838B838D819E81D9
:1025000001979E838D838D819E81009769F714C00A
:102510006F81788589859A850E944900DC01CB010D
:102520009E838D838D819E819A83898389819A81FF
:102530000197F1F79A838983EF960FB6F894DEBF7F
:102540000FBECDBFCF91DF910895DF93CF9300D021
:1025500000D00F92CDB7DEB79B838A836C834D8307
:102560008C816D810E94E912198220C08981282FF7
:1025700030E08A819B81FC01E20FF31F80810E9481
:10258000391089818F5F89838D818F5F8D838D81E4
:10259000883260F01D828C818F5F8C838C818230C9
:1025A00008F01C828C816D810E94E9128981282F9C
:1025B00030E08A819B81FC01E20FF31F8081882338
:1025C000A9F60F900F900F900F900F90CF91DF9181
:1025D0000895DF93CF9300D000D0CDB7DEB78983C5
:1025E0006A8389818230A8F58A81883290F5898151
:1025F000282F30E03C832B838B819C818130910597
:10260000D1F02B813C81223031052CF48B819C81CF
:10261000009761F01EC02B813C812230310581F092
:102620008B819C818330910581F013C08A81805811
:102630000E94C80D0EC08A8180540E94C80D09C036
:102640008A818C560E94C80D04C08A818C520E94D7
:10265000C80D0F900F900F900F90CF91DF910895BC
:10266000DF93CF93CDB7DEB763970FB6F894DEBF95
:102670000FBECDBF9A8B898B6B8B8B89883008F00E
:1026800098C08B89882F90E0880F991F880F991F19
:10269000880F991F888B88898064888B88890E941D
:1026A000C80D1F860EC08F85282F30E089899A8932
:1026B000FC01E20FF31F80810E9439108F858F5F2C
:1026C0008F878F85873078F382E00E94C80D80E085
:1026D00090E0A0E0B0E48B879C87AD87BE876B85D8
:1026E0007C858D859E8520E030E04AE755E40E9498
:1026F0001F02DC01CB018F839887A987BA876F817E
:10270000788589859A8520E030E040E85FE30E9483
:10271000250488232CF481E090E09E838D833FC0C4
:102720006F81788589859A8520E03FEF4FE757E4F0
:102730000E94C50318164CF56B857C858D859E859A
:1027400020E030E040E251E40E941F02DC01CB01B6
:10275000BC01CD010E944900DC01CB019E838D8329
:102760000FC080E991E09C838B838B819C810197D2
:10277000F1F79C838B838D819E8101979E838D834E
:102780008D819E81009769F714C06F817885898556
:102790009A850E944900DC01CB019E838D838D8147
:1027A0009E819A83898389819A810197F1F79A831F
:1027B000898363960FB6F894DEBF0FBECDBFCF916D
:1027C000DF910895DF93CF93CDB7DEB72E970FB685
:1027D000F894DEBF0FBECDBF81E065E041E00E940E
:1027E0004F0681E067E041E00E944F0681E066E02D
:1027F00040E00E944F0681E064E042E00E944F0604
:10280000EDE2F0E0808180618083EDE2F0E08081A4
:102810008C7F81608083EEE2F0E080818E7F808318
:10282000EDE2F0E080818064808380E090E0AAE7C0
:10283000B4E48B879C87AD87BE876B857C858D854F
:102840009E8520E030E04AE753E40E941F02DC014D
:10285000CB018F839887A987BA876F81788589850F
:102860009A8520E030E040E85FE30E942504882359
:102870002CF481E090E09E838D833FC06F8178854A
:1028800089859A8520E03FEF4FE757E40E94C50312
:1028900018164CF56B857C858D859E8520E030E093
:1028A00040E251E40E941F02DC01CB01BC01CD01DA
:1028B0000E944900DC01CB019E838D830FC089E11A
:1028C00090E09C838B838B819C810197F1F79C83A3
:1028D0008B838D819E8101979E838D838D819E81C7
:1028E000009769F714C06F81788589859A850E9461
:1028F0004900DC01CB019E838D838D819E819A836B
:10290000898389819A810197F1F79A8389832E9629
:102910000FB6F894DEBF0FBECDBFCF91DF91089503
:10292000DF93CF93CDB7DEB781E065E040E00E9452
:102930004F0681E067E040E00E944F0681E066E0DC
:1029400041E00E944F0681E064E040E00E944F06B3
:10295000EDE2F0E0808180648083CF91DF91089583
:10296000DF93CF930F92CDB7DEB78983EFE2F0E02C
:1029700089818083EEE2F0E0808180788823D1F342
:102980000F90CF91DF910895DF93CF93CDB7DEB74E
:10299000EEE2F0E0808180788823D1F3EFE2F0E08E
:1029A0008081CF91DF910895DF93CF93CDB7DEB7CC
:1029B00027970FB6F894DEBF0FBECDBFE0E4F0E07E
:1029C0001082E9E2F0E087E68083AAE2B0E0EAE282
:1029D000F0E0808180618C93AAE2B0E0EAE2F0E06E
:1029E000808188608C931F821C8219821E821D82C6
:1029F00081E08A8381E08B83AAE2B0E0EAE2F0E042
:102A000080818B7F8C93E0E4F0E080E88083E0E4D9
:102A1000F0E08F81882F90E00024969587950794A9
:102A2000969587950794982F802D282F20688C8164
:102A3000882F90E0880F991F880F991F880F991F82
:102A4000922F982B8981292F282B8E81882F90E017
:102A5000880F991F82959295907F9827807F98275D
:102A6000282B8D81882F90E082959295907F9827D2
:102A7000807F9827282B8A81882F90E0880F991FC4
:102A8000282B8B81882F90E0880F991F880F991F22
:102A9000822B8083AAE2B0E0EAE2F0E080818F7DC1
:102AA0008C9327960FB6F894DEBF0FBECDBFCF91A3
:102AB000DF910895DF93CF930F92CDB7DEB789836F
:102AC000ABE2B0E0EBE2F0E0808180648C93AAE2BC
:102AD000B0E0EAE2F0E080818F7B8C931092D2022A
:102AE0001092D102EBE2F0E08081829586958770AA
:102AF000882F90E0817090700097A1F3ECE2F0E0F5
:102B000089818083EBE2F0E08081829586958695CD
:102B10008370882F90E081709070009799F30F90E8
:102B2000CF91DF910895DF93CF9300D0CDB7DEB77B
:102B3000ABE2B0E0EBE2F0E0808180688C93AAE247
:102B4000B0E0EAE2F0E080818F778C931092D402BB
:102B50001092D302EBE2F0E080818823DCF7EBE215
:102B6000F0E0808189838981882F90E08C7190705A
:102B7000009719F08FEF8A8304C0ECE2F0E08081C7
:102B80008A838A810F900F90CF91DF910895DF9310
:102B9000CF9300D00F92CDB7DEB789837B836A8352
:102BA000EBE2F0E08081829586958770882F90E037
:102BB000817090700097A1F3ABE2B0E0EBE2F0E03F
:102BC000808180648C93AAE2B0E0EAE2F0E0808148
:102BD00080648C938A819B819093D2028093D102EE
:102BE000ECE2F0E0898180830F900F900F90CF91FD
:102BF000DF910895DF93CF9300D0CDB7DEB79A83EE
:102C00008983ABE2B0E0EBE2F0E0808180688C93F6
:102C1000AAE2B0E0EAE2F0E0808180688C938981EA
:102C20009A819093D4028093D3020F900F90CF910A
:102C3000DF910895DF93CF9300D0CDB7DEB7EBE2FD
:102C4000F0E0808189838981882F90E08C71907079
:102C5000009719F08FEF8A8304C0ECE2F0E08081E6
:102C60008A838A810F900F90CF91DF9108951F92F0
:102C70000F920FB60F9211242F933F934F935F93B0
:102C80006F937F938F939F93AF93BF93EF93FF9334
:102C9000DF93CF93CDB7DEB78091D1029091D2026E
:102CA000009729F0E091D102F091D2020995CF91DD
:102CB000DF91FF91EF91BF91AF919F918F917F91A4
:102CC0006F915F914F913F912F910F900FBE0F9099
:102CD0001F9018951F920F920FB60F9211242F93E9
:102CE0003F934F935F936F937F938F939F93AF9394
:102CF000BF93EF93FF93DF93CF93CDB7DEB7809170
:102D0000D5029091D602009729F0E091D502F0917A
:102D1000D6020995CF91DF91FF91EF91BF91AF91CD
:102D20009F918F917F916F915F914F913F912F91E3
:102D30000F900FBE0F901F9018951F920F920FB615
:102D40000F9211242F933F934F935F936F937F9331
:102D50008F939F93AF93BF93EF93FF93DF93CF93A3
:102D6000CDB7DEB78091D3029091D402009729F0BD
:102D7000E091D302F091D4020995CF91DF91FF91B8
:102D8000EF91BF91AF919F918F917F916F915F91E3
:102D90004F913F912F910F900FBE0F901F9018955C
:102DA000DF93CF93CDB7DEB70E94FF168FEF91E090
:102DB0000E9420170E94BF0A8091D802813021F41E
:102DC00083E49BE10E94FA158091D702813039F4A7
:102DD0000E9487181092D70281E08093CF028091E1
:102DE000CF02813049F70E94CD0A0E944B17109202
:102DF000CF0281E08093D8020E94BF0ADDCFDF932B
:102E0000CF93CDB7DEB70E94D4140E94E21380E0C6
:102E100066E041E00E944F0680E067E041E00E94EA
:102E20004F060E94DB0A80E066E041E00E94E60770
:102E300080E067E041E00E94E607CF91DF910895CE
:102E4000DF93CF9300D00F92CDB7DEB79B838A83F9
:102E5000198210C08981282F30E08A819B81FC0172
:102E6000E20FF31F8081882F90E00E945A1589811C
:102E70008F5F89838981282F30E08A819B81FC01C3
:102E8000E20FF31F8081882329F70F900F900F9096
:102E9000CF91DF910895DF93CF9300D0CDB7DEB708
:102EA00080E690E060E040E00E94A5128091F80189
:102EB000282F30E03A83298389819A8181309105D6
:102EC000B1F029813A8122303105F1F089819A816E
:102ED000009739F58FE690E060E04EE00E94A51281
:102EE0008EE790E060E04EE00E94A51226C08FE6DB
:102EF00090E060E04EE00E94A5128BE890E060E078
:102F00004EE00E94A51219C08FE690E060E04EE00E
:102F10000E94A51287E990E060E04EE00E94A512B1
:102F20000CC08FE690E060E04EE00E94A51286EAB9
:102F300090E060E04EE00E94A5128EEA90E060E032
:102F40004EE10E94A51282EB90E060E041E20E9417
:102F5000A5128091FB01803339F484EB90E060E0AE
:102F600041E20E94A5120AC08091FB01813331F435
:102F700086EB90E060E041E20E94A51288EB90E0D1
:102F800061E04EE10E94A51282EB90E061E041E237
:102F90000E94A5128091FC01803339F484EB90E00B
:102FA00061E041E20E94A5120AC08091FC018133D8
:102FB00031F486EB90E061E041E20E94A5128CEBD7
:102FC00090E060E043E20E94A51282EB90E060E0B6
:102FD00046E20E94A5128091FD01803339F484EB12
:102FE00090E060E046E20E94A5120AC08091FD01D7
:102FF000813331F486EB90E060E046E20E94A51256
:1030000080EC90E061E043E20E94A51282EB90E048
:1030100061E046E20E94A5128091FE01803339F4FE
:1030200084EB90E061E046E20E94A5120AC0809124
:10303000FE01813331F486EB90E061E046E20E94CC
:10304000A51284EC90E061E040E00E94A51220917E
:10305000F9013091FA0100D000D000D0EDB7FEB7F1
:1030600031968CED92E09183808382ED90E09383A2
:103070008283358324830E94861B2DB73EB72A5F47
:103080003F4F0FB6F8943EBF0FBE2DBF85ED90E0C9
:1030900061E04DE00E94A5128CED92E061E04DE010
:1030A0000E94A51289ED90E061E042E10E94A51224
:1030B0008091DA02282F30E000D000D000D0EDB7A8
:1030C000FEB7319683EE92E09183808382ED90E0AB
:1030D00093838283358324830E94861B8DB79EB79A
:1030E00006960FB6F8949EBF0FBE8DBF85ED90E09B
:1030F00061E049E10E94A51283EE92E061E049E1BE
:103100000E94A5120F900F90CF91DF910895DF9349
:10311000CF93CDB7DEB76F970FB6F894DEBF0FBE73
:10312000CDBF0E941A168093E7028091E702282FF4
:1031300030E03F8F2E8F8E8D9F8D8D349105C9F09D
:103140002E8D3F8D2E3431053CF48E8D9F8D843431
:10315000910509F4EFC08AC22E8D3F8D23353105CC
:1031600009F4C4C08E8D9F8D8435910509F473C117
:103170007DC281EE90E00E9420170E9493158093FB
:10318000D9028CE091E00E9420170E9493158D8F48
:103190008D8D882F90E09C01220F331F220F331F4B
:1031A000C901880F991F880F991F820F931F805C98
:1031B0008093DA028091D902823559F51092F80194
:1031C00080E067E040E00E94E6078091E7020E940D
:1031D000B0148091D9020E94B0148091DA020E944A
:1031E000B01480E067E041E00E94E60780E066E01E
:1031F00040E00E94E6078091E7020E94B0148091AF
:10320000D9020E94B01480E066E041E00E94E60727
:1032100068C08091D9028C3461F581E08093F80117
:1032200080E067E040E00E94E6078091E7020E94AC
:10323000B0148091D9020E94B01480E067E041E0B0
:103240000E94E60780E066E040E00E94E607809189
:10325000E7020E94B0148091D9020E94B0148091BC
:10326000DA020E94B01480E066E041E00E94E607C6
:1032700038C08091D902863481F582E08093F801CC
:1032800080E067E040E00E94E6078091E7020E944C
:10329000B0148091D9020E94B0148091DA020E9489
:1032A000B01480E067E041E00E94E60780E066E05D
:1032B00040E00E94E6078091E7020E94B0148091EE
:1032C000D9020E94B0148091DA020E94B01480E00A
:1032D00066E041E00E94E60704C085E391E00E94B9
:1032E000201785E591E00E942017C4C183E08093F8
:1032F000F80180E067E040E00E94E6078091E70285
:103300000E94B01480E067E041E00E94E60780E0A0
:1033100066E040E00E94E6078091E7020E94B01458
:1033200080E066E041E00E94E60785E591E00E94CA
:103330002017A0C189E591E00E9420170E949315F3
:103340008093E20286E791E00E9420178091E202DA
:103350008134D9F40E9493158093FB0180E066E0EC
:1033600040E00E94E6078091E7020E94B01480913D
:10337000E2020E94B0148091FB010E94B01480E030
:1033800066E041E00E94E60761C08091E20282347B
:10339000D9F40E9493158093FC0180E066E040E040
:1033A0000E94E6078091E7020E94B0148091E20239
:1033B0000E94B0148091FC010E94B01480E066E08D
:1033C00041E00E94E60742C08091E2028334D9F4D2
:1033D0000E9493158093FD0180E067E040E00E9429
:1033E000E6078091E7020E94B0148091E2020E94F9
:1033F000B0148091FD010E94B01480E067E041E0CC
:103400000E94E60723C08091E2028434D9F40E942E
:1034100093158093FE0180E067E040E00E94E6079C
:103420008091E7020E94B0148091E2020E94B014E1
:103430008091FE010E94B01480E067E041E00E94AC
:10344000E60704C085E391E00E94201785E591E03E
:103450000E9420170FC180E066E040E00E94E6076E
:103460008091E7020E94B0140E94C414882F90E05B
:103470009093FA018093F90180E090E0A8E4B2E42F
:10348000898F9A8FAB8FBC8F698D7A8D8B8D9C8D38
:1034900020E030E04AE753E40E941F02DC01CB0148
:1034A0008D8B9E8BAF8BB88F6D897E898F89988D20
:1034B00020E030E040E85FE30E94250488232CF4FC
:1034C00081E090E09C8B8B8B3FC06D897E898F89DA
:1034D000988D20E03FEF4FE757E40E94C503181690
:1034E0004CF5698D7A8D8B8D9C8D20E030E040E22B
:1034F00051E40E941F02DC01CB01BC01CD010E94FE
:103500004900DC01CB019C8B8B8B0FC089E190E0E3
:103510009A8B898B89899A890197F1F79A8B898B84
:103520008B899C8901979C8B8B8B8B899C890097BD
:1035300069F714C06D897E898F89988D0E94490032
:10354000DC01CB019C8B8B8B8B899C89988B8F8723
:103550008F8598890197F1F7988B8F878091E70283
:103560000E94B0140E94C414882F90E09093FA0136
:103570008093F90180E090E0A8E4B2E48B879C8717
:10358000AD87BE876B857C858D859E8520E030E08C
:103590004AE753E40E941F02DC01CB018F83988726
:1035A000A987BA876F81788589859A8520E030E080
:1035B00040E85FE30E94250488232CF481E090E03A
:1035C0009E838D833FC06F81788589859A8520E0B1
:1035D0003FEF4FE757E40E94C50318164CF56B8583
:1035E0007C858D859E8520E030E040E251E40E949C
:1035F0001F02DC01CB01BC01CD010E944900DC01AE
:10360000CB019E838D830FC089E190E09C838B83E7
:103610008B819C810197F1F79C838B838D819E81A7
:1036200001979E838D838D819E81009769F714C0D9
:103630006F81788589859A850E944900DC01CB01DC
:103640009E838D838D819E819A83898389819A81CE
:103650000197F1F79A83898380E066E041E00E9458
:10366000E60785E591E00E94201704C08BEA91E00F
:103670000E9420176F960FB6F894DEBF0FBECDBF25
:10368000CF91DF910895DF93CF93CDB7DEB781E07F
:103690008093D7021092D802CF91DF9108952F9294
:1036A0003F924F925F926F927F928F929F92AF92D2
:1036B000BF92CF92DF92EF92FF920F931F93CF931F
:1036C000DF93CDB7DEB7CA1BDB0B0FB6F894DEBFB6
:1036D0000FBECDBF09942A88398848885F846E84DC
:1036E0007D848C849B84AA84B984C884DF80EE8026
:1036F000FD800C811B81AA81B981CE0FD11D0FB62F
:10370000F894DEBF0FBECDBFED010895AEE0B0E08E
:10371000ECE8FBE10C945D1B0D891E8986E08C832F
:103720001A8309838FEF9FE79E838D839E01275E17
:103730003F4FCE0101966F89788DA9010E94AA1B87
:103740002F813885020F131FF80110822E96E4E0B6
:103750000C94791BABE0B0E0E0EBFBE10C944F1B69
:103760003C012B015A01FC0117821682838181FDE5
:1037700003C06FEF7FEFC6C19AE0892E1E01089447
:10378000211C311CF3012381F20123FD859123FFCC
:1037900081912F01882309F4B2C1853239F423FDC8
:1037A000859123FF81912F01853229F490E0B301A7
:1037B0000E949D1DE7CF982FFF24EE249924FFE15E
:1037C000FF15D0F09B3269F09C3228F4903259F00A
:1037D000933291F40EC09D3249F0903369F441E088
:1037E00024C052E0F52A84E0F82A28C098E0F92A9B
:1037F00025C0E0E1FE2A22C0F7FC29C0892F8053B2
:103800008A3070F4F6FE05C0989C902C1124980E16
:1038100015C0E89CE02C1124E80EF0E2FF2A0EC04F
:103820009E3229F4F6FC6BC140E4F42A07C09C36B2
:1038300019F450E8F52A02C0983649F4F20123FD44
:10384000959123FF91912F01992309F0B8CF892FEA
:103850008554833018F08052833038F444E050E0CF
:10386000A40EB51E5FE359830FC0933631F0933732
:1038700079F0933509F056C020C0F5018081898325
:1038800042E050E0A40EB51E610101E010E012C05C
:10389000F501C080D180F6FC03C06FEF7FEF02C05E
:1038A000692D70E042E050E0A40EB51EC6010E94F2
:1038B000921D8C015FE7F52214C0F501C080D18014
:1038C000F6FC03C06FEF7FEF02C0692D70E042E0AD
:1038D00050E0A40EB51EC6010E94871D8C0150E861
:1038E000F52AF3FE07C01AC080E290E0B3010E94FF
:1038F0009D1DEA948E2D90E008171907A8F30EC0BD
:10390000F601F7FC8591F7FE81916F0190E0B3011C
:103910000E949D1DE110EA9401501040011511050F
:1039200079F7EAC0943611F0993669F5F7FE08C0C8
:10393000F501208131814281538184E090E00AC009
:10394000F501808191819C01442737FD4095542FDA
:1039500082E090E0A80EB91E9FE6F92257FF09C049
:1039600050954095309521953F4F4F4F5F4FE0E880
:10397000FE2ACA01B901A1012AE030E00E94C91D56
:10398000D82ED21840C0953729F41F2D1F7E2AE06B
:1039900030E01DC01F2D197F9F3661F0903720F455
:1039A000983509F0ACC00FC0903739F0983709F05E
:1039B000A6C004C028E030E00AC0106114FD146005
:1039C00020E130E004C014FD166020E132E017FF72
:1039D00008C0F501608171818281938144E050E0EB
:1039E00008C0F50180819181BC0180E090E042E057
:1039F00050E0A40EB51EA1010E94C91DD82ED218F8
:103A00008FE7F82EF122F6FE0BC05EEFF522D914F7
:103A100038F4F4FE07C0F2FC05C08FEEF82202C0B5
:103A20001D2D01C0192DF4FE0DC0FE01ED0DF11D7F
:103A30008081803319F499EEF92208C01F5FF2FEED
:103A400005C003C08F2D867809F01F5F0F2DF3FC92
:103A500014C0F0FE0FC01E1510F09D2C0BC09D2C45
:103A60009E0C911A1E2D06C080E290E0B3010E94C8
:103A70009D1D1F5F1E15C0F304C01E1510F4E11A32
:103A800001C0EE2404FF0FC080E390E0B3010E9468
:103A90009D1D02FF1DC001FD03C088E790E00EC020
:103AA00088E590E00BC0802F867891F001FF02C07E
:103AB0008BE201C080E2F7FC8DE290E0B3010E944E
:103AC0009D1D06C080E390E0B3010E949D1D9A9465
:103AD000D914C0F3DA94F101ED0DF11D808190E06D
:103AE000B3010E949D1DDD20A9F706C080E290E091
:103AF000B3010E949D1DEA94EE20C1F743CEF3016D
:103B000066817781CB012B96E2E10C946B1BFC0163
:103B10000590615070400110D8F7809590958E0FF8
:103B20009F1F0895FC016150704001900110D8F76B
:103B3000809590958E0F9F1F08950F931F93CF939D
:103B4000DF938C01EB018B8181FF1BC082FF0DC0D5
:103B50002E813F818C819D812817390764F4E8818B
:103B6000F9810193F983E88306C0E885F985802F00
:103B70000995892B31F48E819F8101969F838E83D5
:103B800002C00FEF1FEFC801DF91CF911F910F917E
:103B90000895FA01AA27283051F1203181F1E894E3
:103BA0006F936E7F6E5F7F4F8F4F9F4FAF4FB1E030
:103BB0003ED0B4E03CD0670F781F891F9A1FA11D2B
:103BC000680F791F8A1F911DA11D6A0F711D811D2C
:103BD000911DA11D20D009F468943F912AE0269FF1
:103BE00011243019305D3193DEF6CF010895462F50
:103BF0004770405D4193B3E00FD0C9F7F6CF462F31
:103C00004F70405D4A3318F0495D31FD4052419399
:103C100002D0A9F7EACFB4E0A69597958795779556
:103C20006795BA95C9F700976105710508959B01DD
:103C3000AC010A2E06945795479537952795BA9566
:103C4000C9F7620F731F841F951FA01D0895F89474
:023C5000FFCFA4
:103C52004D6F746F72205374617475733A20002033
:103C620020202020202020202020202020005475E9
:103C7200726E6564205269676874005475726E656D
:103C820064204C656674004D6F76696E6720466FDE
:103C920072776172640053746F7070656400413AA8
:103CA2002000200030003100423A2000433A200038
:103CB200443A200054656D70657261747572653A9C
:103CC20020002564002020200053706565643A209E
:103CD200000D506C656173652C20656E74657220F1
:103CE20074686520646972656374696F6E206F66BB
:103CF200206D6F76656D656E743A20000D506C65AF
:103D02006173652C20656E7465722074686520731A
:103D120070656564202866726F6D203020746F2094
:103D220039293A20000D5468697320696E737472E0
:103D3200756374696F6E206973206E6F742076618B
:103D42006C69642E000D3E20000D506C6561736538
:103D52002C20656E7465722074686520646F6F72C2
:103D62002049443A20000D456E746572202831299D
:103D720020746F206F70656E2074686520646F6FA9
:103D8200722C2028302920746F20636C6F73652099
:103D920074686520646F6F723A20000D546869730D
:103DA20020696E737472756374696F6E2069732013
:103DB2006E6F742076616C69642E20506C6561733D
:103DC2006520656E74657220612076616C6964207D
:103DD200696E737472756374696F6E2E0D3E200086
:103DE2000000000000000000031A0030303030579D
:103DF200656C636F6D6520746F2074686520636104
:103E0200722073797374656D20636F6E74726F6C58
:103E12002070726F6772616D2E20506C65617365E0
:103E22007320726561642074686520666F6C6C6FC4
:103E320077696E6720696E737472756374696F6EE9
:103E4200733A200D456E74657220274D2720746FDA
:103E5200206D6F766520746865206361722E200D77
:103E6200456E746572202744272077697468206143
:103E720020646F6F72206E616D6520616E642074C4
:103E8200686520646F6F722073746174652E0D45CE
:103E92006E7465722027542720746F2075706461D8
:103EA2007465207468652074656D706572617475DF
:103EB20072652072656164696E672E0D3E20000195
:00000001FF
