:100000000C942A000C9447000C9447000C94470071
:100010000C9447000C9447000C94D6140C940315D0
:100020000C9430150C945D150C943E0E0C94710ECE
:100030000C9447000C9447000C9447000C94470024
:100040000C9447000C9447000C9447000C94470014
:100050000C94470011241FBECFE5D4E0DEBFCDBF16
:1000600010E0A8E6B0E001C01D92AE37B107E1F79D
:1000700010E0A0E6B0E0E8EBFCE202C005900D92D3
:10008000A836B107D9F70E948A150C945A160C9419
:100090000000EF92FF920F931F937B018C0120E0F1
:1000A00030E040E05FE40E94490388238CF0C801FF
:1000B000B70120E030E040E05FE40E94C1010E940F
:1000C000A9039B01AC01205030404040504806C07D
:1000D000C801B7010E94A9039B01AC01B901CA0183
:1000E0001F910F91FF90EF900895A0E0B0E0EBE733
:1000F000F0E00C942316DC012B01FA019C91923064
:1001000008F439C1EB018881823008F433C194309E
:1001100069F4843009F02FC111969C91119789815F
:10012000981709F428C1A0E6B0E025C1843009F48D
:1001300021C18230A9F4923009F01DC19A01AD01AC
:1001400088E0EA010990AE01E90109929E0181501F
:10015000C1F7E201898111969C918923818308C1AD
:10016000923009F407C112962D903C901397EB0141
:100170008A819B811496AD90BD90CD90DC901797AD
:10018000EC80FD800E811F819101281B390BB90184
:1001900037FF04C066277727621B730B6032710537
:1001A0000CF061C0121613066CF537014801062EDB
:1001B00004C096948794779467940A94D2F721E0C8
:1001C00030E040E050E004C0220F331F441F551FB1
:1001D0006A95D2F721503040404050402E213F21B7
:1001E00040235123211531054105510521F021E01E
:1001F00030E040E050E079018A01E628F72808293C
:1002000019293CC0232BD1F1260E371E350146019A
:10021000062E04C096948794779467940A94D2F734
:1002200021E030E040E050E004C0220F331F441FC3
:10023000551F6A95D2F721503040404050402A2146
:100240003B214C215D21211531054105510521F04E
:1002500021E030E040E050E059016A01A628B728CB
:10026000C828D9280BC0821593052CF01C01AA249C
:10027000BB24650103C0EE24FF24870111969C91E5
:10028000D20111968C91981709F445C0992339F041
:10029000A80197012A193B094C095D0906C0A6016E
:1002A00095012E193F09400B510B57FD08C01182D3
:1002B0003382228224833583468357831DC081E0A5
:1002C00081833382228288279927DC01821B930B4A
:1002D000A40BB50B84839583A683B7830DC0220F2F
:1002E000331F441F551F24833583468357838281E0
:1002F000938101979383828324813581468157813D
:10030000DA01C9010197A109B1098F5F9F4FAF4F72
:10031000BF4328F30BC0918333822282EA0CFB1C7B
:100320000C1D1D1DE482F5820683178383E0808304
:10033000248135814681578157FF1AC0C901AA27F8
:1003400097FDA095BA2F81709070A070B0705695EF
:10035000479537952795822B932BA42BB52B848318
:100360009583A683B7838281938101969383828349
:10037000DF0101C0D201CD01CDB7DEB7E2E10C94BF
:100380003F16A0E2B0E0E7ECF1E00C942F16698391
:100390007A838B839C832D833E834F835887E9E048
:1003A000EE2EF12CEC0EFD1ECE010196B7010E943F
:1003B000D2048E010F5E1F4FCE010596B8010E9438
:1003C000D2048A8991E089278A8BC701B801AE01DE
:1003D000475E5F4F0E9475000E94FD03A096E6E015
:1003E0000C944B16A0E2B0E0E8EFF1E00C942F166D
:1003F00069837A838B839C832D833E834F835887C5
:10040000F9E0EF2EF12CEC0EFD1ECE010196B701A6
:100410000E94D2048E010F5E1F4FCE010596B801D7
:100420000E94D204C701B801AE01475E5F4F0E942F
:1004300075000E94FD03A096E6E00C944B16A0E226
:10044000B0E0E5E2F2E00C94231669837A838B83B3
:100450009C832D833E834F835887CE010196BE0136
:10046000675F7F4F0E94D204CE010596BE016F5E8A
:100470007F4F0E94D2049985923088F0898982301A
:10048000C8F0943019F4823051F404C0843029F457
:10049000923081F480E690E0C6C0923049F420E0CA
:1004A0009A858A89981321E02A87CE010996BBC0D4
:1004B000823049F420E09A858A89981321E02A8BBA
:1004C000CE014196B0C02D843E844F8458886D88FB
:1004D0007E888F88988CEE24FF248701AA24BB2471
:1004E000650140E050E060E070E0E0E0F0E0C10174
:1004F00081709070892BE9F0E60CF71C081D191D1E
:100500009A01AB012A0D3B1D4C1D5D1D80E090E062
:10051000A0E0B0E0E614F7040805190520F481E036
:1005200090E0A0E0B0E0BA01A901480F591F6A1F8E
:100530007B1FAA0CBB1CCC1CDD1C97FE08C081E0F5
:1005400090E0A0E0B0E0A82AB92ACA2ADB2A3196B6
:10055000E032F10549F0660C771C881C991C569412
:10056000479437942794C3CFFA85EA892B893C892D
:100570008B859C85280F391F2E5F3F4F17C0CA01FE
:1005800081709070892B61F016950795F794E79428
:1005900080E090E0A0E0B0E8E82AF92A0A2B1B2BC3
:1005A00076956795579547952F5F3F4F77FDE7CF36
:1005B0000CC0440F551F661F771F17FD4160EE0CDE
:1005C000FF1C001F111F21503040403090E05907A0
:1005D00090E0690790E4790760F32B8F3C8FDB0193
:1005E000CA018F779070A070B07080349105A1051A
:1005F000B10561F447FD0AC0E114F10401051105DC
:1006000029F0405C5F4F6F4F7F4F40781A8EFE1786
:1006100011F081E08A8F4D8F5E8F6F8F78A383E01A
:10062000898FCE0149960E94FD03A096E2E10C94C9
:100630003F16A8E1B0E0EFE1F3E00C942F166983D8
:100640007A838B839C832D833E834F83588789E0F5
:10065000E82EF12CEC0EFD1ECE010196B7010E9492
:10066000D2048E010F5E1F4FCE010596B8010E9485
:10067000D2048985823040F08989823028F0C70110
:10068000B8010E944A0501C08FEF6896E6E00C941D
:100690004B16A8E1B0E0EFE4F3E00C942F16698369
:1006A0007A838B839C832D833E834F83588789E095
:1006B000E82EF12CEC0EFD1ECE010196B7010E9432
:1006C000D2048E010F5E1F4FCE010596B8010E9425
:1006D000D2048985823040F08989823028F0C701B0
:1006E000B8010E944A0501C08FEF6896E6E00C94BD
:1006F0004B16A8E1B0E0EFE7F3E00C942F16698306
:100700007A838B839C832D833E834F83588789E034
:10071000E82EF12CEC0EFD1ECE010196B7010E94D1
:10072000D2048E010F5E1F4FCE010596B8010E94C4
:10073000D2048985823040F08989823028F0C7014F
:10074000B8010E944A0501C081E06896E6E00C9479
:100750004B16ACE0B0E0EFEAF3E00C94331669839B
:100760007A838B839C83CE010196BE016B5F7F4FA2
:100770000E94D2048D81823061F1823050F1843048
:1007800021F48E81882351F12EC02F81388537FDC9
:1007900020C06E812F3131051CF06623F9F023C093
:1007A0008EE190E0821B930B29853A854B855C8511
:1007B00004C056954795379527958A95D2F76623B5
:1007C000B1F050954095309521953F4F4F4F5F4F79
:1007D0000EC020E030E040E050E009C02FEF3FEFD6
:1007E0004FEF5FE704C020E030E040E050E8B9019F
:1007F000CA012C96E2E00C944F16DF92EF92FF9222
:100800000F931F93FC01E480F58006811781D1804E
:100810008081823048F480E090E0A0E1B0E0E82AF6
:10082000F92A0A2B1B2BA5C0843009F49FC0823003
:1008300021F4EE24FF24870105C0E114F104010531
:10084000110519F4E0E0F0E096C0628173819FEF3A
:10085000623879070CF05BC022E83FEF261B370BAC
:100860002A3131052CF020E030E040E050E02AC091
:10087000B801A701022E04C0769567955795479554
:100880000A94D2F781E090E0A0E0B0E004C0880FC5
:10089000991FAA1FBB1F2A95D2F70197A109B10979
:1008A0008E219F21A023B1230097A105B10521F03E
:1008B00081E090E0A0E0B0E09A01AB01282B392B59
:1008C0004A2B5B2BDA01C9018F779070A070B07052
:1008D00080349105A105B10539F427FF09C0205CDA
:1008E0003F4F4F4F5F4F04C0215C3F4F4F4F5F4F13
:1008F000E0E0F0E02030A0E03A07A0E04A07A0E402
:100900005A0710F0E1E0F0E079018A0127C0603871
:10091000710564F5FB01E158FF4FD801C7018F77DE
:100920009070A070B07080349105A105B10539F4C4
:10093000E7FE0DC080E490E0A0E0B0E004C08FE3EB
:1009400090E0A0E0B0E0E80EF91E0A1F1B1F17FFA1
:1009500005C016950795F794E794319687E01695AC
:100960000795F794E7948A95D1F705C0EE24FF2404
:100970008701EFEFF0E06E2F679566276795902F60
:100980009F77D794DD24D7948E2F8695492F462BB9
:10099000582F5D29B701CA011F910F91FF90EF9069
:1009A000DF900895FC01DB01408151812281622F9B
:1009B0006F7770E0221F2227221F9381892F880FD3
:1009C000822B282F30E0991F9927991F11969C930D
:1009D000119721153105A9F54115510561057105DD
:1009E00011F482E037C082E89FEF13969C938E93B8
:1009F00012979A01AB0167E0220F331F441F551F66
:100A00006A95D1F783E08C930DC0220F331F441FEA
:100A1000551F12968D919C911397019713969C9355
:100A20008E931297203080E0380780E0480780E4FA
:100A3000580758F314962D933D934D935C93179755
:100A400008952F3F310579F4411551056105710570
:100A500019F484E08C93089564FF03C081E08C93C3
:100A600012C01C9210C02F57304013963C932E9307
:100A7000129783E08C9387E0440F551F661F771F02
:100A80008A95D1F7706414964D935D936D937C9322
:100A9000179708951F93DC01FB019C91923008F495
:100AA00047C08081823008F443C0943051F41196DD
:100AB0001C91843099F58181682F70E0611B710968
:100AC0003FC0843021F0923031F48230B9F181811D
:100AD000882389F12DC011961C9111978230F1F075
:100AE00081811817D9F412962D913C911397828128
:100AF00093818217930794F028173907BCF0149656
:100B00008D919D910D90BC91A02D248135814681C0
:100B10005781281739074A075B0718F4112341F05A
:100B20000AC082179307A407B50740F4112319F0F0
:100B300061E070E005C06FEF7FEF02C060E070E041
:100B4000CB011F910895DF93CF9300D000D00F9277
:100B5000CDB7DEB789836A834B838981843008F0FF
:100B600081C18A81883008F07DC18981282F30E0D9
:100B70003D832C838C819D818130910509F46EC069
:100B80002C813D81223031052CF48C819D81009790
:100B900071F068C12C813D812230310509F4B5C066
:100BA0008C819D818330910509F406C15BC18B81E5
:100BB0008823A1F0AAE3B0E0EAE3F0E08081482FC7
:100BC0008A81282F30E081E090E0022E02C0880F59
:100BD000991F0A94E2F7842B8C9344C1AAE3B0E0F6
:100BE000EAE3F0E08081482F8A81282F30E081E01D
:100BF00090E0022E02C0880F991F0A94E2F78095B8
:100C000084238C938B818230A1F4ABE3B0E0EBE3DF
:100C1000F0E08081482F8A81282F30E081E090E049
:100C2000022E02C0880F991F0A94E2F7842B8C933E
:100C300019C1ABE3B0E0EBE3F0E08081482F8A819B
:100C4000282F30E081E090E0022E02C0880F991F2B
:100C50000A94E2F7809584238C9304C18B818823C6
:100C6000A1F0A7E3B0E0E7E3F0E08081482F8A81BC
:100C7000282F30E081E090E0022E02C0880F991FFB
:100C80000A94E2F7842B8C93EDC0A7E3B0E0E7E38E
:100C9000F0E08081482F8A81282F30E081E090E0C9
:100CA000022E02C0880F991F0A94E2F780958423D0
:100CB0008C938B818230A1F4A8E3B0E0E8E3F0E00C
:100CC0008081482F8A81282F30E081E090E0022E39
:100CD00002C0880F991F0A94E2F7842B8C93C2C03C
:100CE000A8E3B0E0E8E3F0E08081482F8A81282F74
:100CF00030E081E090E0022E02C0880F991F0A9434
:100D0000E2F7809584238C93ADC08B818823A1F07A
:100D1000A4E3B0E0E4E3F0E08081482F8A81282F4B
:100D200030E081E090E0022E02C0880F991F0A9403
:100D3000E2F7842B8C9396C0A4E3B0E0E4E3F0E008
:100D40008081482F8A81282F30E081E090E0022EB8
:100D500002C0880F991F0A94E2F7809584238C9330
:100D60008B818230A1F4A5E3B0E0E5E3F0E080817F
:100D7000482F8A81282F30E081E090E0022E02C0C7
:100D8000880F991F0A94E2F7842B8C936BC0A5E31C
:100D9000B0E0E5E3F0E08081482F8A81282F30E041
:100DA00081E090E0022E02C0880F991F0A94E2F7BA
:100DB000809584238C9356C08B818823A1F0A1E376
:100DC000B0E0E1E3F0E08081482F8A81282F30E015
:100DD00081E090E0022E02C0880F991F0A94E2F78A
:100DE000842B8C933FC0A1E3B0E0E1E3F0E080818D
:100DF000482F8A81282F30E081E090E0022E02C047
:100E0000880F991F0A94E2F7809584238C938B8135
:100E10008230A1F4A2E3B0E0E2E3F0E08081482F69
:100E20008A81282F30E081E090E0022E02C0880FF6
:100E3000991F0A94E2F7842B8C9314C0A2E3B0E0CC
:100E4000E2E3F0E08081482F8A81282F30E081E0C2
:100E500090E0022E02C0880F991F0A94E2F7809555
:100E600084238C930F900F900F900F900F90CF9141
:100E7000DF910895DF93CF9300D000D00F92CDB7CC
:100E8000DEB789836A834B838981843008F0D5C0BB
:100E90008A81883008F0D1C08981282F30E03D83D5
:100EA0002C838C819D818130910509F443C02C8174
:100EB0003D81223031052CF48C819D81009771F0A9
:100EC000BCC02C813D812230310509F45FC08C818A
:100ED0009D818330910509F485C0AFC08B81882343
:100EE000A1F0ABE3B0E0EBE3F0E08081482F8A8132
:100EF000282F30E081E090E0022E02C0880F991F79
:100F00000A94E2F7842B8C9398C0ABE3B0E0EBE358
:100F1000F0E08081482F8A81282F30E081E090E046
:100F2000022E02C0880F991F0A94E2F7809584234D
:100F30008C9383C08B818823A1F0A8E3B0E0E8E321
:100F4000F0E08081482F8A81282F30E081E090E016
:100F5000022E02C0880F991F0A94E2F7842B8C930B
:100F60006CC0A8E3B0E0E8E3F0E08081482F8A811C
:100F7000282F30E081E090E0022E02C0880F991FF8
:100F80000A94E2F7809584238C9357C08B81882341
:100F9000A1F0A5E3B0E0E5E3F0E08081482F8A818D
:100FA000282F30E081E090E0022E02C0880F991FC8
:100FB0000A94E2F7842B8C9340C0A5E3B0E0E5E30C
:100FC000F0E08081482F8A81282F30E081E090E096
:100FD000022E02C0880F991F0A94E2F7809584239D
:100FE0008C932BC08B818823A1F0A2E3B0E0E2E3D5
:100FF000F0E08081482F8A81282F30E081E090E066
:10100000022E02C0880F991F0A94E2F7842B8C935A
:1010100014C0A2E3B0E0E2E3F0E08081482F8A81CF
:10102000282F30E081E090E0022E02C0880F991F47
:101030000A94E2F7809584238C930F900F900F9081
:101040000F900F90CF91DF910895DF93CF9300D051
:1010500000D000D0CDB7DEB78A836B8319828A8136
:10106000843008F071C08B81883008F06AC08A81B2
:10107000282F30E03E832D834D815E814130510524
:1010800041F18D819E818230910534F42D813E8124
:101090002115310561F052C04D815E81423051050C
:1010A00051F18D819E8183309105B9F147C0E9E30B
:1010B000F0E08081282F30E08B81882F90E0A9011B
:1010C00002C0559547958A95E2F7CA0181708983D8
:1010D00035C0E6E3F0E08081282F30E08B81882F57
:1010E00090E0A90102C0559547958A95E2F7CA019B
:1010F0008170898323C0E3E3F0E08081282F30E012
:101100008B81882F90E0A90102C0559547958A955B
:10111000E2F7CA018170898311C0E0E3F0E08081C9
:10112000282F30E08B81882F90E0A90102C05595CF
:1011300047958A95E2F7CA018170898359815C835A
:1011400005C08FEF8C8302C09FEF9C838C81269615
:101150000FB6F894DEBF0FBECDBFCF91DF910895DB
:10116000DF93CF9300D000D0CDB7DEB789836A83F9
:101170008981843090F58981282F30E03C832B834E
:101180008B819C8181309105D1F02B813C81223073
:1011900031052CF48B819C81009761F01EC02B815E
:1011A0003C812230310581F08B819C818330910517
:1011B00081F013C0EBE3F0E08A8180830EC0E8E3A6
:1011C000F0E08A81808309C0E5E3F0E08A818083D2
:1011D00004C0E2E3F0E08A8180830F900F900F90CB
:1011E0000F90CF91DF910895DF93CF9300D000D07F
:1011F0000F92CDB7DEB78A8319828A818430A8F531
:101200008A81282F30E03D832C838C819D81813021
:101210009105D1F02C813D81223031052CF48C8157
:101220009D81009761F01EC02C813D8122303105E7
:1012300081F08C819D818330910581F013C0E9E3B9
:10124000F0E0808189830EC0E6E3F0E0808189834D
:1012500009C0E3E3F0E08081898304C0E0E3F0E0CB
:101260008081898399819B8301C01B828B810F9030
:101270000F900F900F900F90CF91DF910895DF9313
:10128000CF9300D000D0CDB7DEB789836A83898140
:10129000843008F072C08A81883008F06EC089817D
:1012A000282F30E03C832B838B819C8181309105FA
:1012B00049F12B813C81223031052CF48B819C81BA
:1012C000009761F05AC02B813C812230310571F1C9
:1012D0008B819C8183309105E9F14FC0ABE3B0E095
:1012E000EBE3F0E08081482F8A81282F30E081E015
:1012F00090E0022E02C0880F991F0A94E2F784271B
:101300008C933BC0A8E3B0E0E8E3F0E08081482F95
:101310008A81282F30E081E090E0022E02C0880F01
:10132000991F0A94E2F784278C9327C0A5E3B0E0C5
:10133000E5E3F0E08081482F8A81282F30E081E0CA
:1013400090E0022E02C0880F991F0A94E2F78427CA
:101350008C9313C0A2E3B0E0E2E3F0E08081482F79
:101360008A81282F30E081E090E0022E02C0880FB1
:10137000991F0A94E2F784278C930F900F900F9097
:101380000F90CF91DF910895DF93CF9300D00F920C
:10139000CDB7DEB789838981843008F03EC089816A
:1013A000282F30E03B832A838A819B8181309105FD
:1013B000E9F02A813B81223031052CF48A819B811E
:1013C000009761F02AC02A813B8122303105B1F0BB
:1013D0008A819B8183309105C9F01FC0ABE3B0E0E7
:1013E000EBE3F0E0808180958C9317C0A8E3B0E038
:1013F000E8E3F0E0808180958C930FC0A5E3B0E036
:10140000E5E3F0E0808180958C9307C0A2E3B0E033
:10141000E2E3F0E0808180958C930F900F900F9025
:10142000CF91DF910895DF93CF93CDB7DEB78AE0F8
:101430000E94D20E89E10E94D20E83E065E041E075
:101440000E94A30583E064E041E00E94A30581E0DF
:1014500060E070E00E94071482E060E070E00E94AB
:101460000714E6E4F0E080E49CE9918380830E9425
:10147000A40ECF91DF910895DF93CF9300D0CDB725
:10148000DEB79A83898329813A8181E0B9010E947C
:1014900007140F900F90CF91DF910895DF93CF93B2
:1014A000CDB7DEB72E970FB6F894DEBF0FBECDBF17
:1014B00081E065E041E00E94A30581E067E041E052
:1014C0000E94A30581E066E040E00E94A30581E060
:1014D00064E042E00E94A305EDE2F0E080818061DB
:1014E0008083EDE2F0E080818C7F81608083EEE29A
:1014F000F0E080818E7F8083EDE2F0E08081806487
:10150000808380E090E0AAE7B4E48B879C87AD8776
:10151000BE876B857C858D859E8520E030E04AE71F
:1015200053E40E941F02DC01CB018F839887A987B7
:10153000BA876F81788589859A8520E030E040E818
:101540005FE30E94790388232CF481E090E09E837E
:101550008D833FC06F81788589859A8520E03FEF34
:101560004FE757E40E94190318164CF56B857C85EC
:101570008D859E8520E030E040E251E40E941F020C
:10158000DC01CB01BC01CD010E944900DC01CB0193
:101590009E838D830FC089E190E09C838B838B8138
:1015A0009C810197F1F79C838B838D819E810197AC
:1015B0009E838D838D819E81009769F714C06F8112
:1015C000788589859A850E944900DC01CB019E833C
:1015D0008D838D819E819A83898389819A810197E8
:1015E000F1F79A8389832E960FB6F894DEBF0FBE6B
:1015F000CDBFCF91DF910895DF93CF93CDB7DEB705
:1016000081E065E040E00E94A30581E067E040E002
:101610000E94A30581E066E041E00E94A30581E00D
:1016200064E040E00E94A305EDE2F0E08081806488
:101630008083CF91DF910895DF93CF930F92CDB741
:10164000DEB78983EFE2F0E089818083EEE2F0E0AB
:10165000808180788823D1F30F90CF91DF91089516
:10166000DF93CF93CDB7DEB7EEE2F0E080818078F4
:101670008823D1F3EFE2F0E08081CF91DF910895EC
:10168000DF93CF93CDB7DEB7A3E5B0E0E3E5F0E0BD
:10169000808185608C93CF91DF910895DF93CF9304
:1016A0000F92CDB7DEB78983E2E5F0E089818083D0
:1016B0000F90CF91DF910895DF93CF93CDB7DEB731
:1016C000A3E5B0E0E3E5F0E08081887F8C93CF91E3
:1016D000DF910895DF93CF9300D00F92CDB7DEB79F
:1016E00089838981282F30E03B832A838A819B81EB
:1016F0008630910509F402C12A813B8127303105EA
:1017000024F58A819B818230910509F483C02A8166
:101710003B812330310564F48A819B81009709F471
:101720003FC02A813B812130310509F456C0CDC12B
:101730008A819B818430910509F4A6C02A813B816E
:10174000253031050CF0BDC082C08A819B818A3072
:10175000910509F447C12A813B812B3031056CF496
:101760008A819B818830910509F402C12A813B81DD
:10177000293031050CF019C1DEC08A819B818C3083
:10178000910509F469C12A813B812C3031050CF4A3
:1017900046C18A819B818D30910509F47AC195C13A
:1017A000A3E5B0E0E3E5F0E080818F7B8C93A3E5D7
:1017B000B0E0E3E5F0E08081877F8C93A3E5B0E0C3
:1017C000E3E5F0E080818F7E8C93A3E5B0E0E3E574
:1017D000F0E080818F7D8C9378C1A3E5B0E0E3E5F4
:1017E000F0E080818F7B8C93A3E5B0E0E3E5F0E04F
:1017F0008081877F8C93A3E5B0E0E3E5F0E0808112
:1018000080618C93A3E5B0E0E3E5F0E080818F7D1B
:101810008C935BC1A3E5B0E0E3E5F0E080818F7BD2
:101820008C93A3E5B0E0E3E5F0E08081877F8C93C3
:10183000A3E5B0E0E3E5F0E080818F7E8C93A3E543
:10184000B0E0E3E5F0E0808180628C933EC1A3E5E7
:10185000B0E0E3E5F0E080818F7B8C93A3E5B0E01E
:10186000E3E5F0E08081877F8C93A3E5B0E0E3E5DA
:10187000F0E0808180618C93A3E5B0E0E3E5F0E0E7
:10188000808180628C9321C1A3E5B0E0E3E5F0E0C4
:1018900080818F7B8C93A3E5B0E0E3E5F0E080816D
:1018A00088608C93A3E5B0E0E3E5F0E080818F7E73
:1018B0008C93A3E5B0E0E3E5F0E080818F7D8C932D
:1018C00004C1A3E5B0E0E3E5F0E080818F7B8C9379
:1018D000A3E5B0E0E3E5F0E0808188608C93A3E5C8
:1018E000B0E0E3E5F0E0808180618C93A3E5B0E0B7
:1018F000E3E5F0E080818F7D8C93E7C0A3E5B0E065
:10190000E3E5F0E080818F7B8C93A3E5B0E0E3E535
:10191000F0E0808188608C93A3E5B0E0E3E5F0E03F
:1019200080818F7E8C93A3E5B0E0E3E5F0E08081D9
:1019300080628C93CAC0A3E5B0E0E3E5F0E080816B
:101940008F7B8C93A3E5B0E0E3E5F0E080818860D5
:101950008C93A3E5B0E0E3E5F0E0808180618C93B7
:10196000A3E5B0E0E3E5F0E0808180628C93ADC058
:10197000A3E5B0E0E3E5F0E0808180648C93A3E52B
:10198000B0E0E3E5F0E0808188608C93A3E5B0E00F
:10199000E3E5F0E080818F7E8C93A3E5B0E0E3E5A2
:1019A000F0E080818F7D8C9390C0A3E5B0E0E3E50B
:1019B000F0E0808180648C93A3E5B0E0E3E5F0E0A3
:1019C000808188608C93A3E5B0E0E3E5F0E080815E
:1019D0008F7E8C93A3E5B0E0E3E5F0E08081806248
:1019E0008C9373C0A3E5B0E0E3E5F0E08081806410
:1019F0008C93A3E5B0E0E3E5F0E0808188608C9310
:101A0000A3E5B0E0E3E5F0E0808180618C93A3E59D
:101A1000B0E0E3E5F0E0808180628C9356C0A3E5FE
:101A2000B0E0E3E5F0E0808180648C93A3E5B0E072
:101A3000E3E5F0E08081877F8C93A3E5B0E0E3E508
:101A4000F0E080818F7E8C93A3E5B0E0E3E5F0E0E9
:101A500080818F7D8C9339C0A3E5B0E0E3E5F0E0B1
:101A6000808180648C93A3E5B0E0E3E5F0E08081C1
:101A7000877F8C93A3E5B0E0E3E5F0E080818F7E83
:101A80008C93A3E5B0E0E3E5F0E0808180628C9385
:101A90001CC0A3E5B0E0E3E5F0E0808180648C93B6
:101AA000A3E5B0E0E3E5F0E08081877F8C93A3E5D8
:101AB000B0E0E3E5F0E0808180618C93A3E5B0E0E5
:101AC000E3E5F0E0808180628C930F900F900F909F
:101AD000CF91DF910895DF93CF93CDB7DEB7E2E5E5
:101AE000F0E01082CF91DF910895DF93CF93CDB7CF
:101AF000DEB7E2E5F0E08081CF91DF910895DF93DA
:101B0000CF930F92CDB7DEB78983E2E5F0E0908105
:101B10008981891B0F90CF91DF910895DF93CF9337
:101B200000D000D00F92CDB7DEB769837A838B8364
:101B30009C8387EC0E94D20D0E94400B10C0E8E508
:101B4000F0E08081882F90E0817090700097B9F369
:101B5000A8E5B0E0E8E5F0E0808181608C931D822B
:101B600089819A81AB81BC810097A105B10511F0F3
:101B700081E08D8389819A81AB81BC810197A10924
:101B8000B10989839A83AB83BC838D818823B9F69D
:101B90000E94400B0F900F900F900F900F90CF91DD
:101BA000DF910895DF93CF930F92CDB7DEB789838E
:101BB000ECE5F0E0898180830F90CF91DF9108956B
:101BC000DF93CF9300D0CDB7DEB79A838983A9E5A1
:101BD000B0E0E9E5F0E0808181608C9389819A81B1
:101BE000009731F089819A8190936B0080936A000D
:101BF0000F900F90CF91DF910895DF93CF9300D096
:101C0000CDB7DEB79A838983A9E5B0E0E9E5F0E0D6
:101C1000808182608C9389819A81009731F08981DB
:101C20009A8190936900809368000F900F90CF91F4
:101C3000DF910895DF93CF93CDB7DEB7A9E5B0E08C
:101C4000E9E5F0E080818E7F8C9310926B0010921A
:101C50006A00CF91DF910895DF93CF93CDB7DEB7C0
:101C6000A9E5B0E0E9E5F0E080818D7F8C931092EA
:101C7000690010926800CF91DF9108951F920F9232
:101C80000FB60F9211242F933F934F935F936F934F
:101C90007F938F939F93AF93BF93EF93FF93DF93C4
:101CA000CF93CDB7DEB7809168009091690000971F
:101CB00029F0E0916800F09169000995CF91DF91DA
:101CC000FF91EF91BF91AF919F918F917F916F9114
:101CD0005F914F913F912F910F900FBE0F901F90EA
:101CE00018951F920F920FB60F9211242F933F93C6
:101CF0004F935F936F937F938F939F93AF93BF9314
:101D0000EF93FF93DF93CF93CDB7DEB780916A0057
:101D100090916B00009729F0E0916A00F0916B00C0
:101D20000995CF91DF91FF91EF91BF91AF919F9175
:101D30008F917F916F915F914F913F912F910F9074
:101D40000FBE0F901F901895DF93CF93CDB7DEB7DE
:101D5000AEE4B0E0EEE4F0E0808182608C93CF915D
:101D6000DF910895DF93CF93CDB7DEB7AEE4B0E057
:101D7000EEE4F0E08081887F8C93CF91DF9108952D
:101D8000DF93CF9300D0CDB7DEB79A838983ECE49D
:101D9000F0E089819A81918380830F900F90CF9199
:101DA000DF910895DF93CF9300D00F92CDB7DEB7C8
:101DB00089838981282F30E03B832A838A819B8114
:101DC0008E30910509F489C22A813B812F3031057B
:101DD0000CF054C08A819B818630910509F481C141
:101DE0002A813B812730310524F58A819B8182300D
:101DF000910509F4E6C02A813B812330310564F462
:101E00008A819B81009709F494C02A813B8121300B
:101E1000310509F4B2C0A8C28A819B818430910542
:101E200009F417C12A813B81253031050CF035C1F9
:101E3000ECC08A819B818A30910509F4D0C12A8146
:101E40003B812B3031056CF48A819B818830910570
:101E500009F48FC12A813B81293031050CF0ADC1D5
:101E600064C18A819B818C30910509F400C22A816A
:101E70003B812D3031050CF01EC2D5C18A819B817A
:101E80008631910509F43FC12A813B812731310513
:101E90002CF58A819B818231910509F4A4C02A81A5
:101EA0003B81233131056CF48A819B81803191051E
:101EB00009F451C02A813B81213131050CF06FC0FA
:101EC00030C28A819B818431910509F4D4C02A8172
:101ED0003B81253131050CF0F2C0A9C08A819B817C
:101EE0008A31910509F4B1C12A813B812B31310539
:101EF0006CF48A819B818831910509F44CC12A8157
:101F00003B81293131050CF07CC121C18A819B8143
:101F10008C31910509F4F3C12A813B812C313105C3
:101F20000CF4B7C18A819B818D31910509F40BC2F4
:101F30001BC2AFE4B0E0EFE4F0E080818F778C93D8
:101F4000AFE4B0E0EFE4F0E080818F7B8C9380E041
:101F50000E94BA1109C2AFE4B0E0EFE4F0E0808182
:101F60008F7D8C93AFE4B0E0EFE4F0E080818F7E72
:101F70008C9380E00E94BA11F7C1AFE4B0E0EFE4C7
:101F8000F0E080818F778C93AFE4B0E0EFE4F0E095
:101F9000808180648C9380E00E94BA11E5C1AFE437
:101FA000B0E0EFE4F0E080818F7D8C93AFE4B0E0AF
:101FB000EFE4F0E0808180618C9380E00E94BA11B0
:101FC000D3C1AFE4B0E0EFE4F0E0808180688C93AF
:101FD000AFE4B0E0EFE4F0E080818F7B8C9380E0B1
:101FE0000E94BA11C1C1AFE4B0E0EFE4F0E080813B
:101FF00080628C93AFE4B0E0EFE4F0E080818F7E0C
:102000008C9380E00E94BA11AFC1AFE4B0E0EFE47E
:10201000F0E0808180688C93AFE4B0E0EFE4F0E022
:10202000808180648C9380E00E94BA119DC1AFE4EE
:10203000B0E0EFE4F0E0808180628C93AFE4B0E048
:10204000EFE4F0E0808180618C9380E00E94BA111F
:102050008BC1AFE4B0E0EFE4F0E080818F778C9348
:10206000AFE4B0E0EFE4F0E080818F7B8C9384E01C
:102070000E94BA1179C1AFE4B0E0EFE4F0E08081F2
:102080008F7D8C93AFE4B0E0EFE4F0E080818F7E51
:102090008C9384E00E94BA1167C1AFE4B0E0EFE432
:1020A000F0E080818F778C93AFE4B0E0EFE4F0E074
:1020B000808180648C9384E00E94BA1155C1AFE4A2
:1020C000B0E0EFE4F0E080818F7D8C93AFE4B0E08E
:1020D000EFE4F0E0808180618C9384E00E94BA118B
:1020E00043C1AFE4B0E0EFE4F0E0808180688C931E
:1020F000AFE4B0E0EFE4F0E080818F7B8C9384E08C
:102100000E94BA1131C1AFE4B0E0EFE4F0E08081A9
:1021100080628C93AFE4B0E0EFE4F0E080818F7EEA
:102120008C9384E00E94BA111FC1AFE4B0E0EFE4E9
:10213000F0E0808180688C93AFE4B0E0EFE4F0E001
:10214000808180648C9384E00E94BA110DC1AFE459
:10215000B0E0EFE4F0E0808180628C93AFE4B0E027
:10216000EFE4F0E0808180618C9384E00E94BA11FA
:10217000FBC0AFE4B0E0EFE4F0E080818F778C93B8
:10218000AFE4B0E0EFE4F0E080818F7B8C938EE0F1
:102190000E94BA11E9C0AFE4B0E0EFE4F0E0808162
:1021A0008F7D8C93AFE4B0E0EFE4F0E080818F7E30
:1021B0008C938EE00E94BA11D7C0AFE4B0E0EFE498
:1021C000F0E080818F778C93AFE4B0E0EFE4F0E053
:1021D000808180648C938EE00E94BA11C5C08DE02E
:1021E0000E94BA11AFE4B0E0EFE4F0E080818068D3
:1021F0008C93AFE4B0E0EFE4F0E080818F7B8C93D0
:10220000B3C08DE00E94BA11AFE4B0E0EFE4F0E0BB
:10221000808180628C93AFE4B0E0EFE4F0E08081F5
:102220008F7E8C93A1C0AFE4B0E0EFE4F0E080815A
:1022300080688C93AFE4B0E0EFE4F0E080818064EC
:102240008C938EE00E94BA118FC0AFE4B0E0EFE44F
:10225000F0E0808180628C93AFE4B0E0EFE4F0E0E6
:10226000808180618C938EE00E94BA117DC0AFE4C2
:10227000B0E0EFE4F0E080818F778C93AFE4B0E0E2
:10228000EFE4F0E080818F7B8C938BE00E94BA11A9
:102290006BC0AFE4B0E0EFE4F0E080818F7D8C9321
:1022A000AFE4B0E0EFE4F0E080818F7E8C938BE0D0
:1022B0000E94BA1159C0AFE4B0E0EFE4F0E08081D1
:1022C0008F778C93AFE4B0E0EFE4F0E0808180643E
:1022D0008C938BE00E94BA1147C0AFE4B0E0EFE40A
:1022E000F0E0808180688C93AFE4B0E0EFE4F0E050
:1022F00080818F7B8C938BE00E94BA1135C0AFE454
:10230000B0E0EFE4F0E0808180628C93AFE4B0E075
:10231000EFE4F0E080818F7E8C938BE00E94BA1115
:1023200023C0AFE4B0E0EFE4F0E0808180688C93FC
:10233000AFE4B0E0EFE4F0E0808180648C938BE068
:102340000E94BA1111C0AFE4B0E0EFE4F0E0808188
:1023500080628C93AFE4B0E0EFE4F0E080818061D4
:102360008C938BE00E94BA110F900F900F90CF9139
:10237000DF910895DF93CF9300D00F92CDB7DEB7F2
:1023800089838981282F30E03B832A838A819B813E
:102390008730910509F424C12A813B812830310519
:1023A0004CF58A819B818330910509F4A5C02A816F
:1023B0003B81243031058CF48A819B8181309105E9
:1023C00009F460C02A813B81223031050CF077C0CE
:1023D0008A819B810097C9F1EAC12A813B8125301E
:1023E000310509F4C3C08A819B81863091050CF0C8
:1023F000DAC09FC02A813B812B30310509F464C1CA
:102400008A819B818C3091056CF42A813B81293033
:10241000310509F41FC18A819B818A3091050CF036
:1024200036C1FBC02A813B812D30310509F486C1BC
:102430008A819B818D3091050CF463C12A813B8197
:102440002E30310509F497C1B2C1AFE4B0E0EFE43A
:10245000F0E080818E7F8C93AFE4B0E0EFE4F0E0B9
:1024600080818D7F8C93AEE4B0E0EEE4F0E080817B
:10247000877F8C93AEE4B0E0EEE4F0E080818F7E65
:102480008C9395C1AFE4B0E0EFE4F0E0808181602F
:102490008C93AFE4B0E0EFE4F0E080818D7F8C932B
:1024A000AEE4B0E0EEE4F0E08081877F8C93AEE4B0
:1024B000B0E0EEE4F0E080818F7E8C9378C1AFE4F1
:1024C000B0E0EFE4F0E080818E7F8C93AFE4B0E089
:1024D000EFE4F0E0808182608C93AEE4B0E0EEE463
:1024E000F0E08081877F8C93AEE4B0E0EEE4F0E032
:1024F00080818F7E8C935BC1AFE4B0E0EFE4F0E0CD
:10250000808181608C93AFE4B0E0EFE4F0E0808103
:1025100082608C93AEE4B0E0EEE4F0E08081877FEF
:102520008C93AEE4B0E0EEE4F0E080818F7E8C939B
:102530003EC1AFE4B0E0EFE4F0E080818E7F8C93A9
:10254000AFE4B0E0EFE4F0E080818D7F8C93AEE407
:10255000B0E0EEE4F0E0808188608C93AEE4B0E01F
:10256000EEE4F0E080818F7E8C9321C1AFE4B0E097
:10257000EFE4F0E0808181608C93AFE4B0E0EFE4C1
:10258000F0E080818D7F8C93AEE4B0E0EEE4F0E08B
:10259000808188608C93AEE4B0E0EEE4F0E080816E
:1025A0008F7E8C9304C1AFE4B0E0EFE4F0E0808173
:1025B0008E7F8C93AFE4B0E0EFE4F0E08081826046
:1025C0008C93AEE4B0E0EEE4F0E0808188608C9320
:1025D000AEE4B0E0EEE4F0E080818F7E8C93E7C063
:1025E000AFE4B0E0EFE4F0E0808181608C93AFE491
:1025F000B0E0EFE4F0E0808182608C93AEE4B0E084
:10260000EEE4F0E0808188608C93AEE4B0E0EEE42C
:10261000F0E080818F7E8C93CAC0AFE4B0E0EFE43D
:10262000F0E080818E7F8C93AFE4B0E0EFE4F0E0E7
:1026300080818D7F8C93AEE4B0E0EEE4F0E08081A9
:10264000877F8C93AEE4B0E0EEE4F0E080818061BF
:102650008C93ADC0AFE4B0E0EFE4F0E08081816046
:102660008C93AFE4B0E0EFE4F0E080818D7F8C9359
:10267000AEE4B0E0EEE4F0E08081877F8C93AEE4DE
:10268000B0E0EEE4F0E0808180618C9390C0AFE434
:10269000B0E0EFE4F0E080818E7F8C93AFE4B0E0B7
:1026A000EFE4F0E0808182608C93AEE4B0E0EEE491
:1026B000F0E08081877F8C93AEE4B0E0EEE4F0E060
:1026C000808180618C9373C0AFE4B0E0EFE4F0E010
:1026D000808181608C93AFE4B0E0EFE4F0E0808132
:1026E00082608C93AEE4B0E0EEE4F0E08081877F1E
:1026F0008C93AEE4B0E0EEE4F0E0808180618C93F6
:1027000056C0AFE4B0E0EFE4F0E080818E7F8C93C0
:10271000AFE4B0E0EFE4F0E080818D7F8C93AEE435
:10272000B0E0EEE4F0E0808188608C93AEE4B0E04D
:10273000EEE4F0E0808180618C9339C0AFE4B0E0DA
:10274000EFE4F0E080818E7F8C93AFE4B0E0EFE4C3
:10275000F0E0808182608C93AEE4B0E0EEE4F0E0E3
:10276000808188608C93AEE4B0E0EEE4F0E080819C
:1027700080618C931CC0AFE4B0E0EFE4F0E08081B6
:1027800081608C93AFE4B0E0EFE4F0E080818260A0
:102790008C93AEE4B0E0EEE4F0E0808188608C934E
:1027A000AEE4B0E0EEE4F0E0808180618C930F90C5
:1027B0000F900F90CF91DF910895DF93CF93CDB716
:1027C000DEB7ECE4F0E011821082CF91DF91089542
:1027D000DF93CF93CDB7DEB7ECE4F0E08081918159
:1027E000CF91DF910895DF93CF9300D0CDB7DEB7BF
:1027F0009A838983ECE4F0E02081318189819A8198
:10280000821B930B0F900F90CF91DF910895DF9370
:10281000CF9300D00F92CDB7DEB789837B836A83D5
:102820008981813039F4EAE4F0E08A819B819183E7
:10283000808309C08981823031F4E8E4F0E08A8144
:102840009B81918380830F900F900F90CF91DF91A8
:102850000895DF93CF9300D0CDB7DEB79A838983F5
:10286000A9E5B0E0E9E5F0E0808184608C9389819E
:102870009A8190936F0080936E000F900F90CF918C
:10288000DF910895DF93CF9300D0CDB7DEB79A8361
:102890008983A9E5B0E0E9E5F0E0808180628C936E
:1028A00089819A8190937300809372000F900F90AA
:1028B000CF91DF910895DF93CF9300D00F92CDB7E2
:1028C000DEB789837B836A838981813071F4A9E5CE
:1028D000B0E0E9E5F0E0808180618C938A819B81A2
:1028E000909371008093700010C08981823069F4E8
:1028F000A9E5B0E0E9E5F0E0808188608C938A8109
:102900009B8190936D0080936C000F900F900F90BF
:10291000CF91DF910895DF93CF93CDB7DEB7A9E5CF
:10292000B0E0E9E5F0E080818F7D8C931092730038
:1029300010927200CF91DF910895DF93CF93CDB7BE
:10294000DEB7A9E5B0E0E9E5F0E080818B7F8C930C
:1029500010926F0010926E00CF91DF910895DF9377
:10296000CF930F92CDB7DEB789838981813061F42F
:10297000A9E5B0E0E9E5F0E080818F7E8C931092CC
:102980007100109270000EC08981823059F4A9E55F
:10299000B0E0E9E5F0E08081877F8C9310926D00D4
:1029A00010926C000F90CF91DF9108951F920F92BB
:1029B0000FB60F9211242F933F934F935F936F9312
:1029C0007F938F939F93AF93BF93EF93FF93DF9387
:1029D000CF93CDB7DEB7E0917200F0917300099507
:1029E000CF91DF91FF91EF91BF91AF919F918F9127
:1029F0007F916F915F914F913F912F910F900FBEFB
:102A00000F901F9018951F920F920FB60F921124DE
:102A10002F933F934F935F936F937F938F939F93E6
:102A2000AF93BF93EF93FF93DF93CF93CDB7DEB711
:102A3000E0917000F09171000995CF91DF91FF91C5
:102A4000EF91BF91AF919F918F917F916F915F9126
:102A50004F913F912F910F900FBE0F901F9018959F
:102A60001F920F920FB60F9211242F933F934F9303
:102A70005F936F937F938F939F93AF93BF93EF93E6
:102A8000FF93DF93CF93CDB7DEB7E0916C00F09169
:102A90006D000995CF91DF91FF91EF91BF91AF91BB
:102AA0009F918F917F916F915F914F913F912F9166
:102AB0000F900FBE0F901F9018951F920F920FB698
:102AC0000F9211242F933F934F935F936F937F93B4
:102AD0008F939F93AF93BF93EF93FF93DF93CF9326
:102AE000CDB7DEB7E0916E00F0916F000995CF9100
:102AF000DF91FF91EF91BF91AF919F918F917F9166
:102B00006F915F914F913F912F910F900FBE0F905A
:102B10001F901895DF93CF9300D0CDB7DEB70E94FA
:102B20000B160E94300B80937B0080917B00282F36
:102B300030E03A83298389819A818D34910559F057
:102B400029813A812335310519F189819A818434AB
:102B5000910511F1E6CF0E94300B80937D008091AA
:102B60007D00823521F080917D00863449F40E94F9
:102B7000300B80937400809174000E94D20DD1CFED
:102B800080917D008C3469F680E00E94D20DC9CF1F
:102B900080E00E94D20DC5CF0E94300B80937A0056
:102BA00080917A008334C9F40E94300B80937500C1
:102BB00080917500803331F481E060E070E00E9424
:102BC0000714AFCF80917500813309F0AACF81E05F
:102BD00068EB7BE00E940714A4CF80917A008434D4
:102BE00009F09FCF0E94300B80937700809177008F
:102BF000803331F482E060E070E00E94071491CFEE
:102C000080917700813309F08CCF82E068EB7BE024
:102C10000E94071486CFDF93CF93CDB7DEB70E9413
:102C2000FC0A8CE00E946A0B81E063E041E00E94B4
:102C3000A30580E00E94D20D0E94400B0E94130A5F
:102C4000CF91DF9108952F923F924F925F926F92B2
:102C50007F928F929F92AF92BF92CF92DF92EF922C
:102C6000FF920F931F93CF93DF93CDB7DEB7CA1BAD
:102C7000DB0B0FB6F894DEBF0FBECDBF09942A88D8
:102C8000398848885F846E847D848C849B84AA8480
:102C9000B984C884DF80EE80FD800C811B81AA810D
:102CA000B981CE0FD11D0FB6F894DEBF0FBECDBFD8
:082CB000ED010895F894FFCF37
:082CB800000000000000000014
:00000001FF
